:020000040800F2
:1000000000C000200D0A0008F1060008F9060008EB
:100010000107000809070008110700080000000098
:1000200000000000000000000000000019070008A8
:100030002507000800000000310700083D07000800
:10004000550A0008550A0008550A0008550A000814
:10005000550A0008550A0008550A0008550A000804
:10006000550A0008550A0008550A0008550A0008F4
:10007000550A0008550A000849070008550A0008F3
:10008000550A0008550A0008550A0008550A0008D4
:10009000550A0008550A0008550A0008550A0008C4
:1000A000550A0008550A0008550A0008550A0008B4
:1000B000550A0008550A0008550A0008550A0008A4
:1000C000550A0008550A0008550A0008550A000894
:1000D000550A00085D070008550A0008550A00087F
:1000E000550A0008550A0008550A0008550A000874
:1000F000550A0008550A0008550A0008550A000864
:10010000550A0008550A0008550A0008550A000853
:10011000550A0008550A0008550A0008550A000843
:10012000550A0008550A0008550A0008550A000833
:1001300000000000000000000000000000000000BF
:1001400000000000000000000000000000000000AF
:10015000000000000000000000000000000000009F
:10016000000000000000000000000000000000008F
:10017000000000000000000000000000000000007F
:10018000000000000000000000000000000000006F
:10019000000000000000000000000000000000005F
:1001A000000000000000000000000000000000004F
:1001B000000000000000000000000000000000003F
:1001C000000000000000000000000000000000002F
:1001D000000000000000000000000000000000001F
:0401E0005FF8E0F1F3
:1001E40010B5054C237833B9044B13B10448AFF36D
:1001F40000800123237010BD68000020000000006F
:10020400883C000808B5034B1BB103490348AFF30E
:10021400008008BD000000006C000020883C00083D
:1002240080B500AF094B1B780133DAB2074B1A7063
:10023400064B1B78142B07D9044B00221A704FF479
:100244000051034801F053FB00BF80BD840000202F
:100254000010014080B500AF322000F05DF800F0DE
:10026400F7F800BF80BD000080B500AF012000F0AA
:10027400C5F80346002B0DD0322000F04DF80A4B90
:100284001B680133084A1360074B1B68194607486B
:1002940002F082FEFFF7C4FF00F07EF80A2000F0AF
:1002A4003BFC00BF80BD00BF88000020A03C0008CC
:1002B40080B483B000AF0346FB80044AFB881380FC
:1002C40000BF0C37BD4680BC704700BF8C000020C7
:1002D40080B400AF024B1B881846BD4680BC7047F3
:1002E4008C00002080B483B000AF0346FB71044A45
:1002F400FB79137000BF0C37BD4680BC704700BF4C
:100304008E00002080B400AF024B1B781846BD4617
:1003140080BC70478E00002080B582B000AF0346D9
:10032400FB80FB88012B0BD10120FFF7DBFF0020B2
:10033400FFF7BEFF01222021154801F0C0FA22E098
:10034400FB88002B0BD10020FFF7CCFF0020FFF728
:10035400AFFF002220210E4801F0B1FA13E0FB8820
:10036400092B10D90220FFF7BDFFFB88094AA2FB25
:100374000323DB089BB21846FFF79AFF01222021D2
:10038400034801F09CFA00BF0837BD4680BD00BF9A
:1003940000100140CDCCCCCC80B500AFFFF7B2FF4C
:1003A4000346022B13D1FFF793FF0346002B06D01D
:1003B400084B1B88013B9AB2064B1A8007E00022C7
:1003C4002021054801F07BFA0020FFF78BFF00BFD6
:1003D40080BD00BF8C0000200010014080B500AF3C
:1003E4000421054801F054FA0346002B01D10123EE
:1003F40000E00023184680BD0014014080B582B09F
:1004040000AF0346FB71FFF7E9FF0346012B0ED152
:100414000E4B1B881A46FB7901335B009A4209DABA
:100424000A4B1B8801339AB2084B1A8002E0074B2F
:1004340000221A80054B1B88022B01D1012300E006
:10044400002318460837BD4680BD00BF9000002039
:1004540080B500AF01220349034801F04CFF00BFFF
:1004640080BD00BF920000209800002080B582B0BB
:1004740000AF0346FB71F91D4FF6FF7301220348D9
:1004840001F0AEFE00BF0837BD4680BD98000020D5
:1004940080B582B000AF7860064B1B781846FFF732
:1004A400E5FF01220349044801F025FF00BF083796
:1004B400BD4680BD920000209800002080B582B027
:1004C40000AF7860391D4FF6FF730122034801F035
:1004D40087FE7B6818460837BD4680BD980000201B
:1004E40080B582B000AF0C4B5B690B4A43F001034B
:1004F4005361094B5B6903F001037B607B68002255
:1005040000210E2000F003FC0E2000F01CFC00BFB4
:100514000837BD4680BD00BF0010024080B588B0DA
:1005240000AF07F1100300221A605A609A60DA6083
:10053400244B9B69234A43F010039361214B9B692D
:1005440003F01003FB60FB681E4B9B691D4A43F0DC
:10055400200393611B4B9B6903F02003BB60BB68C2
:10056400184B9B69174A43F004039361154B9B692D
:1005740003F004037B607B68002242F220011248EE
:1005840001F09DF942F220033B6101237B610023CA
:10059400BB610223FB6107F1100319460A4800F00E
:1005A400E3FF04233B6100237B610123BB6107F16B
:1005B40010031946054800F0D7FF00BF2037BD4699
:1005C40080BD00BF00100240001001400014014033
:1005D40080B500AF00F03EFA00F00BF8FFF79EFF85
:1005E400FFF77EFF00F068F9FFF734FEFFF73CFEEB
:1005F400FCE780B590B000AF07F118032822002172
:10060400184602F01EFD3B1D00221A605A609A60D3
:10061400DA601A610123BB614FF48033FB6100236C
:100624003B620123BB6202237B634FF48033BB63D1
:100634004FF4E013FB6307F11803184601F070F957
:100644000346002B01D000F019F80F237B6002232E
:10065400BB600023FB604FF480633B6100237B613C
:100664003B1D0221184601F0DDFB0346002B01D09F
:1006740000F004F800BF4037BD4680BD80B400AF31
:1006840072B600BF00BFFDE780B485B000AF154B64
:100694009B69144A43F001039361124B9B6903F075
:1006A4000103BB60BB680F4BDB690E4A43F0805308
:1006B400D3610C4BDB6903F080537B607B680A4B8E
:1006C4005B68FB60FB6823F0E063FB60FB6843F05E
:1006D4000073FB60044AFB68536000BF1437BD46D7
:1006E40080BC7047001002400000014080B400AF9D
:1006F40000BFFDE780B400AF00BFFDE780B400AFEA
:1007040000BFFDE780B400AF00BFFDE780B400AFD9
:1007140000BFFDE780B400AF00BFBD4680BC70479A
:1007240080B400AF00BFBD4680BC704780B400AF4A
:1007340000BFBD4680BC704780B500AF00F0D0F963
:1007440000BF80BD80B500AF024800F0D1FC00BFFF
:1007540080BD00BFE000002080B500AF024801F07A
:10076400EFFD00BF80BD00BF9800002080B586B0BB
:1007740000AFF860B9607A6000237B610AE0AFF3F0
:1007840000800146BB685A1CBA60CAB21A707B6901
:1007940001337B617A697B689A42F0DB7B68184697
:1007A4001837BD4680BD80B586B000AFF860B9602B
:1007B4007A6000237B6109E0BB685A1CBA601B782D
:1007C4001846FFF77BFE7B6901337B617A697B689E
:1007D4009A42F1DB7B6818461837BD4680BD80B469
:1007E40083B000AF78604FF0FF3318460C37BD4636
:1007F40080BC704780B483B000AF786039603B68D8
:100804004FF400525A60002318460C37BD4680BC92
:10081400704780B483B000AF7860012318460C376A
:10082400BD4680BC704780B485B000AFF860B96045
:100834007A60002318461437BD4680BC7047000018
:1008440080B586B000AF7860144A154BD31A7B612B
:100854007B693B61134B1B68002B02D1114B124A7D
:100864001A60104B1A687B6813443A699A4207D29B
:1008740002F036FC03460C221A604FF0FF3309E005
:10088400084B1B68FB60074B1A687B681344054AD6
:100894001360FB6818461837BD4680BD00C00020B1
:1008A40000040000940000207802002080B400AF0F
:1008B40000BFBD4680BC704780B500AF114B124AE3
:1008C4001A60104B4FF4E1325A600E4B00229A60CA
:1008D4000C4B0022DA600B4B00221A61094B0C22EC
:1008E4005A61084B00229A61064B0022DA610548DE
:1008F40001F026FC0346002B01D0FFF7BFFE00BF2A
:1009040080BD00BF980000200038014080B588B049
:1009140000AF786007F1100300221A605A609A60F1
:10092400DA607B681B68334A93425FD1324B9B6920
:10093400314A43F4804393612F4B9B6903F4804312
:10094400FB60FB682C4B9B692B4A43F004039361C7
:10095400294B9B6903F00403BB60BB684FF400732D
:100964003B6102237B610323FB6107F110031946FA
:10097400224800F0F9FD4FF480633B6100237B6162
:100984000023BB6107F1100319461C4800F0ECFD7D
:100994001B4B1C4A1A601A4B10225A60184B002237
:1009A4009A60174B8022DA60154B00221A61144BAF
:1009B40000225A61124B00229A61114B0022DA6123
:1009C4000F4800F0DBF90346002B01D0FFF756FE79
:1009D4007B680B4A9A630A4A7B68536200220021AF
:1009E400252000F094F9252000F0ADF900BF203750
:1009F400BD4680BD0038014000100240000801409F
:100A0400E0000020440002400C480D490D4A002338
:100A140002E0D458C4500433C4188C42F9D30A4AAF
:100A24000A4C002301E013600432A242FBD3FFF717
:100A34003DFF02F05BFBFFF7CBFD70470000002099
:100A440068000020143D00086800002074020020A3
:100A5400FEE7000080B500AF084B1B68074A43F06F
:100A640010031360032000F047F90F2000F008F88A
:100A7400FFF70AFE0023184680BD00BF0020024095
:100A840080B582B000AF7860124B1A68124B1B78A5
:100A940019464FF47A73B3FBF1F3B2FBF3F3184640
:100AA40000F05FF90346002B01D001230EE07B68C0
:100AB4000F2B0AD8002279684FF0FF3000F027F995
:100AC400064A7B681360002300E0012318460837B8
:100AD400BD4680BD00000020080000200400002066
:100AE40080B400AF054B1B781A46054B1B681344B2
:100AF400034A136000BFBD4680BC70470800002055
:100B04002401002080B400AF024B1B681846BD4688
:100B140080BC70472401002080B584B000AF7860A9
:100B2400FFF7F0FFB8607B68FB60FB68B3F1FF3F41
:100B340005D00A4B1B781A46FB681344FB6000BFC0
:100B4400FFF7E0FF0246BB68D31AFA689A42F7D867
:100B540000BF00BF1037BD4680BD00BF08000020A5
:100B640080B485B000AF78607B6803F00703FB6056
:100B74000C4BDB68BB60BA684FF6FF031340BB60E5
:100B8400FB681A02BB68134343F0BF6343F40033AA
:100B9400BB60044ABB68D36000BF1437BD4680BC49
:100BA400704700BF00ED00E080B400AF044BDB6889
:100BB4001B0A03F007031846BD4680BC704700BFFC
:100BC40000ED00E080B483B000AF0346FB7197F9F9
:100BD4000730002B0BDBFB7903F01F02064997F962
:100BE40007305B09012000FA02F241F8232000BF1C
:100BF4000C37BD4680BC704700E100E080B483B090
:100C040000AF03463960FB7197F90730002B0ADB0C
:100C14003B68DAB20C4997F907301201D2B20B449F
:100C240083F800230AE03B68DAB20849FB7903F051
:100C34000F03043B1201D2B20B441A7600BF0C37E7
:100C4400BD4680BC704700BF00E100E000ED00E05D
:100C540080B489B000AFF860B9607A60FB6803F0D3
:100C64000703FB61FB69C3F10703042B28BF0423BB
:100C7400BB61FB690433062B02D9FB69033B00E02B
:100C840000237B614FF0FF32BB6902FA03F3DA43BE
:100C9400BB681A407B699A404FF0FF317B6901FAC7
:100CA40003F3D9437B680B40134318462437BD46EE
:100CB40080BC704780B582B000AF78607B68013B30
:100CC400B3F1807F01D301230FE00A4A7B68013B23
:100CD40053600F214FF0FF30FFF790FF054B0022C8
:100CE4009A60044B07221A60002318460837BD4651
:100CF40080BD00BF10E000E080B582B000AF786036
:100D04007868FFF72DFF00BF0837BD4680BD80B56A
:100D140086B000AF0346B9607A60FB7300237B6141
:100D2400FFF742FF78617A68B9687869FFF790FF46
:100D3400024697F90F3011461846FFF75FFF00BFD0
:100D44001837BD4680BD80B582B000AF0346FB7145
:100D540097F907301846FFF735FF00BF0837BD463F
:100D640080BD80B582B000AF78607868FFF7A2FFDD
:100D7400034618460837BD4680BD000080B485B0E0
:100D840000AF78600023FB607B68002B01D1012356
:100D940059E07B681B681A462D4B9A420FD87B6832
:100DA4001B681A462B4B13442B4AA2FB03231B0933
:100DB4009A007B681A647B68284ADA630EE07B68D1
:100DC4001B681A46264B1344234AA2FB03231B0920
:100DD4009A007B681A647B68224ADA637B68022281
:100DE40083F821207B681B681B68FB60FB6823F485
:100DF4007F5323F03003FB607B685A687B689B68F1
:100E04001A437B68DB681A437B681B691A437B6857
:100E14005B691A437B689B691A437B68DB691343EC
:100E2400FA681343FB607B681B68FA681A607B6886
:100E340000229A637B68012283F821207B680022C8
:100E440083F82020002318461437BD4680BC704721
:100E540007040240F8FFFDBFCDCCCCCC000002401B
:100E6400F8FBFDBF0004024080B485B000AF786099
:100E74000023FB737B6893F82130DBB2022B08D08C
:100E84007B6804229A637B68002283F82020012374
:100E940020E07B681B681A687B681B6822F00E02DE
:100EA4001A607B681B681A687B681B6822F0010261
:100EB4001A607B681A6C7B68DB6B012101FA02F211
:100EC4005A607B68012283F821207B68002283F822
:100ED4002020FB7B18461437BD4680BC70470000B9
:100EE40080B584B000AF78600023FB737B6893F80F
:100EF4002130DBB2022B05D07B6804229A630123E4
:100F0400FB73D6E07B681B681A687B681B6822F059
:100F14000E021A607B681B681A687B681B6822F0E3
:100F240001021A607B681B681A46644B9A4258D9BE
:100F34007B681B68624A93424FD07B681B68614A96
:100F4400934248D07B681B685F4A934240D07B68D9
:100F54001B685E4A934238D07B681B685C4A9342A4
:100F640030D07B681B685B4A934228D07B681B683F
:100F7400524A934220D07B681B68574A934219D047
:100F84007B681B68554A934212D07B681B68544A9D
:100F940093420AD07B681B68524A934202D14FF4B1
:100FA40080531BE04FF4803318E04FF4807315E056
:100FB400102313E0012311E04FF080730EE04FF48F
:100FC40080130BE04FF4803308E04FF4805305E0C6
:100FD4004FF4807302E0102300E00123424A53607F
:100FE40057E07B681B68364A93424FD07B681B6886
:100FF400344A934248D07B681B68334A934240D0BA
:101004007B681B68314A934238D07B681B68304A3E
:10101400934230D07B681B682E4A934228D07B6869
:101024001B68264A934220D07B681B682A4A934255
:1010340019D07B681B68294A934212D07B681B68CD
:10104400274A93420AD07B681B68264A934202D1FE
:101054004FF480531BE04FF4803318E04FF4807357
:1010640015E0102313E0012311E04FF080730EE02C
:101074004FF480130BE04FF4803308E04FF48053B7
:1010840005E04FF4807302E0102300E00123174AC7
:1010940053607B68012283F821207B68002283F857
:1010A40020207B685B6B002B03D07B685B6B7868CC
:1010B4009847FB7B18461037BD4680BD8000024030
:1010C400080002401C00024030000240440002407C
:1010D400580002406C000240080402401C04024014
:1010E4003004024044040240000402400000024074
:1010F40080B584B000AF78607B68DB6B1B68FB60F5
:101104007B681B681B68BB607B681B6C04229A406D
:10111400FB681340002B00F0F180BB6803F004036C
:10112400002B00F0EB807B681B681B6803F0200336
:10113400002B07D17B681B681A687B681B6822F048
:1011440004021A607B681B681A465F4B9A4258D99E
:101154007B681B685D4A93424FD07B681B685C4A7E
:10116400934248D07B681B685A4A934240D07B68BC
:101174001B68594A934238D07B681B68574A93428C
:1011840030D07B681B68564A934228D07B681B6822
:101194004D4A934220D07B681B68524A934219D02F
:1011A4007B681B68504A934212D07B681B684F4A85
:1011B40093420AD07B681B684D4A934202D14FF494
:1011C40080431BE04FF4802318E04FF4806315E064
:1011D400402313E0042311E04FF080630EE04FF44A
:1011E40080030BE04FF4802308E04FF4804305E0D4
:1011F4004FF4806302E0402300E004233D4A53603F
:1012040057E07B681B68314A93424FD07B681B6868
:101214002F4A934248D07B681B682E4A934240D0A1
:101224007B681B682C4A934238D07B681B682B4A26
:10123400934230D07B681B68294A934228D07B684C
:101244001B68214A934220D07B681B68254A93423D
:1012540019D07B681B68244A934212D07B681B68B0
:10126400224A93420AD07B681B68214A934202D1E6
:101274004FF480431BE04FF4802318E04FF4806365
:1012840015E0402313E0042311E04FF080630EE0E7
:101294004FF480030BE04FF4802308E04FF48043C5
:1012A40005E04FF4806302E0402300E00423124A87
:1012B40053607B68DB6A002B00F036817B68DB6A55
:1012C4007868984730E100BF80000240080002407F
:1012D4001C0002403000024044000240580002401A
:1012E4006C000240080402401C0402403004024026
:1012F4004404024000040240000002407B681B6C6E
:1013040002229A40FB681340002B00F0DD80BB688A
:1013140003F00203002B00F0D7807B681B681B6876
:1013240003F02003002B0BD17B681B681A687B68D1
:101334001B6822F00A021A607B68012283F82120CC
:101344007B681B681A467B4B9A4258D97B681B689A
:10135400794A93424FD07B681B68784A934248D0BD
:101364007B681B68764A934240D07B681B68754A49
:10137400934238D07B681B68734A934230D07B68B1
:101384001B68724A934228D07B681B68694A93425F
:1013940020D07B681B686E4A934219D07B681B6817
:1013A4006C4A934212D07B681B686B4A93420AD002
:1013B4007B681B68694A934202D14FF400531BE0D7
:1013C4004FF4003318E04FF4007315E0202313E0CA
:1013D400022311E04FF000730EE04FF400130BE012
:1013E4004FF4003308E04FF4005305E04FF400736A
:1013F40002E0202300E00223594A536057E07B684F
:101404001B684D4A93424FD07B681B684B4A9342FA
:1014140048D07B681B684A4A934240D07B681B686B
:10142400484A934238D07B681B68474A934230D07D
:101434007B681B68454A934228D07B681B683D4AF9
:10144400934220D07B681B68414A934219D07B6841
:101454001B68404A934212D07B681B683E4A934201
:101464000AD07B681B683D4A934202D14FF4005373
:101474001BE04FF4003318E04FF4007315E0202311
:1014840013E0022311E04FF000730EE04FF4001359
:101494000BE04FF4003308E04FF4005305E04FF441
:1014A400007302E0202300E002232E4A53607B688D
:1014B400002283F820207B689B6A002B34D07B6851
:1014C4009B6A786898472FE07B681B6C08229A40D7
:1014D400FB681340002B28D0BB6803F00803002BE3
:1014E40023D07B681B681A687B681B6822F00E0295
:1014F4001A607B681A6C7B68DB6B012101FA02F2CB
:101504005A607B6801229A637B68012283F8212058
:101514007B68002283F820207B681B6B002B04D09F
:101524007B681B6B7868984700BF00BF1037BD46C7
:1015340080BD00BF80000240080002401C00024041
:101544003000024044000240580002406C00024057
:10155400080402401C0402403004024044040240D7
:10156400000402400000024080B48BB000AF7860F9
:10157400396000237B6200233B6279E101227B6AAC
:1015840002FA03F3FB613B681B68FA691340BB6111
:10159400BA69FB699A4240F068813B685B68964A85
:1015A40093425ED0944A934275D8944A934258D059
:1015B400924A93426FD8924A934252D0904A9342AD
:1015C40069D8904A93424CD08E4A934263D88E4A4B
:1015D400934246D08C4A93425DD8122B2AD8122BC0
:1015E40059D801A252F823F06716000841160008E2
:1015F40053160008951600089B1600089B16000851
:101604009B1600089B1600089B1600089B160008F2
:101614009B1600089B1600089B1600089B160008E2
:101624009B1600089B1600089B1600084916000824
:101634005D160008754A934213D02CE03B68DB68C2
:101644003B6229E03B68DB6804333B6224E03B688F
:10165400DB6808333B621FE03B68DB680C333B62AA
:101664001AE03B689B68002B02D104233B6213E021
:101674003B689B68012B05D108233B627B68FA69B0
:101684001A6109E008233B627B68FA695A6103E046
:1016940000233B6200E000BFBB69FF2B01D87B68DD
:1016A40001E07B6804337B61BB69FF2B02D87B6A52
:1016B4009B0002E07B6A083B9B003B617B691A68E4
:1016C4000F213B6901FA03F3DB431A40396A3B6992
:1016D40001FA03F31A437B691A603B685B6803F001
:1016E4008053002B00F0C180494B9B69484A43F06A
:1016F40001039361464B9B6903F00103BB60BB6824
:10170400444A7B6A9B08023352F82330FB607B6AAD
:1017140003F003039B000F2202FA03F3DB43FA688E
:101724001340FB607B683C4A93421FD07B683B4A72
:10173400934219D07B683A4A934213D07B68394A62
:1017440093420DD07B68384A934207D07B68374A6E
:10175400934201D105230AE0062308E0042306E0AE
:10176400032304E0022302E0012300E000237A6A59
:1017740002F0030292009340FA681343FB60254988
:101784007B6A9B080233FA6841F823203B685B6854
:1017940003F48013002B06D0254B9A682449BB69B7
:1017A40013438B6006E0224B9A68BB69DB432049F4
:1017B40013408B603B685B6803F40013002B06D076
:1017C4001B4BDA681A49BB691343CB6006E0184B1C
:1017D400DA68BB69DB4316491340CB603B685B683E
:1017E40003F40033002B25D0114B5A681049BB6910
:1017F40013434B6025E000BF00003210000031109D
:10180400000022100000211000001210000011102E
:10181400001002400000014000080140000C01409B
:10182400001001400014014000180140001C014058
:1018340000040140154B5A68BB69DB43134913404C
:101844004B603B685B6803F48033002B06D00F4B7E
:101854001A680E49BB6913430B6006E00B4B1A6808
:10186400BB69DB43094913400B607B6A01337B622C
:101874003B681A687B6A22FA03F3002B7FF47EAE7E
:1018840000BF00BF2C37BD4680BC70470004014038
:1018940080B485B000AF78600B467B807B689A6823
:1018A4007B881340002B02D00123FB7301E000234B
:1018B400FB73FB7B18461437BD4680BC704780B46D
:1018C40083B000AF78600B467B8013467B707B78D7
:1018D400002B03D07A887B681A6103E07B881A04A2
:1018E4007B681A6100BF0C37BD4680BC704780B46A
:1018F40085B000AF78600B467B807B68DB68FB605B
:101904007A88FB6813401A04FB68D9437B880B4030
:101914001A437B681A6100BF1437BD4680BC704708
:1019240080B586B000AF78607B68002B01D10123BD
:1019340072E27B681B6803F00103002B00F08780D0
:10194400924B5B6803F00C03042B0CD08F4B5B6849
:1019540003F00C03082B12D18C4B5B6803F4803327
:10196400B3F5803F0BD1894B1B6803F40033002B84
:101974006CD07B685B68002B68D101234CE27B68E8
:101984005B68B3F5803F06D1804B1B687F4A43F404
:10199400803313602EE07B685B68002B0CD17B4B9B
:1019A4001B687A4A23F480331360784B1B68774AA8
:1019B40023F4802313601DE07B685B68B3F5A02FDC
:1019C4000CD1724B1B68714A43F4802313606F4B34
:1019D4001B686E4A43F4803313600BE06B4B1B6847
:1019E4006A4A23F480331360684B1B68674A23F404
:1019F400802313607B685B68002B13D0FFF782F8A9
:101A0400386108E0FFF77EF802463B69D31A642B7D
:101A140001D9032300E25D4B1B6803F40033002B60
:101A2400F0D014E0FFF76EF8386108E0FFF76AF8C9
:101A340002463B69D31A642B01D90323ECE1534BCF
:101A44001B6803F40033002BF0D100E000BF7B6877
:101A54001B6803F00203002B63D04C4B5B6803F05C
:101A64000C03002B0BD0494B5B6803F00C03082BD1
:101A74001CD1464B5B6803F48033002B16D1434BD7
:101A84001B6803F00203002B05D07B681B69012B44
:101A940001D00123C0E13D4B1B6823F0F8027B68B1
:101AA4005B69DB00394913430B603AE07B681B69CF
:101AB400002B20D0364B01221A60FFF723F838613F
:101AC40008E0FFF71FF802463B69D31A022B01D93D
:101AD4000323A1E12D4B1B6803F00203002BF0D07C
:101AE4002A4B1B6823F0F8027B685B69DB002749FB
:101AF40013430B6015E0264B00221A60FFF702F82F
:101B0400386108E0FEF7FEFF02463B69D31A022B58
:101B140001D9032380E11D4B1B6803F00203002B52
:101B2400F0D17B681B6803F00803002B3AD07B6874
:101B34009B69002B19D0174B01221A60FEF7E2FFB4
:101B4400386108E0FEF7DEFF02463B69D31A022B38
:101B540001D9032360E10D4B5B6A03F00203002B00
:101B6400F0D0012000F0CEFA1CE00A4B00221A60EB
:101B7400FEF7C8FF38610FE0FEF7C4FF02463B6979
:101B8400D31A022B08D9032346E100BF00100240F8
:101B94000000424280044242924B5B6A03F002031B
:101BA400002BE9D17B681B6803F00403002B00F0D1
:101BB400A6800023FB758B4BDB6903F08053002B5D
:101BC4000DD1884BDB69874A43F08053D361854B41
:101BD400DB6903F08053BB60BB680123FB75824B58
:101BE4001B6803F48073002B18D17F4B1B687E4A5B
:101BF40043F480731360FEF785FF386108E0FEF755
:101C040081FF02463B69D31A642B01D9032303E104
:101C1400754B1B6803F48073002BF0D07B68DB6882
:101C2400012B06D16F4B1B6A6E4A43F0010313620A
:101C34002DE07B68DB68002B0CD16A4B1B6A694A78
:101C440023F001031362674B1B6A664A23F0040303
:101C540013621CE07B68DB68052B0CD1614B1B6AAB
:101C6400604A43F0040313625E4B1B6A5D4A43F00F
:101C7400010313620BE05B4B1B6A5A4A23F0010316
:101C84001362584B1B6A574A23F0040313627B68A0
:101C9400DB68002B15D0FEF735FF38610AE0FEF74C
:101CA40031FF02463B69D31A41F28832934201D98B
:101CB4000323B1E04B4B1B6A03F00203002BEED06D
:101CC40014E0FEF71FFF38610AE0FEF71BFF02462F
:101CD4003B69D31A41F28832934201D903239BE032
:101CE400404B1B6A03F00203002BEED1FB7D012B5A
:101CF40005D13C4BDB693B4A23F08053D3617B68BD
:101D0400DB69002B00F08780364B5B6803F00C0323
:101D1400082B61D07B68DB69022B46D1334B002250
:101D24001A60FEF7EFFE386108E0FEF7EBFE0246AC
:101D34003B69D31A022B01D903236DE0294B1B689D
:101D440003F00073002BF0D17B681B6AB3F5803F6E
:101D540008D1244B5B6823F400327B689B682149DB
:101D640013434B601F4B5B6823F474127B68196A3E
:101D74007B685B6A0B431B4913434B601B4B01227B
:101D84001A60FEF7BFFE386108E0FEF7BBFE0246AC
:101D94003B69D31A022B01D903233DE0114B1B6885
:101DA40003F00073002BF0D035E0104B00221A60D2
:101DB400FEF7A8FE386108E0FEF7A4FE02463B6980
:101DC400D31A022B01D9032326E0064B1B6803F028
:101DD4000073002BF0D11EE07B68DB69012B07D177
:101DE400012319E0001002400070004060004242EC
:101DF4000B4B5B68FB60FB6803F480327B681B6AF7
:101E04009A4206D1FB6803F470127B685B6A9A42BB
:101E140001D0012300E0002318461837BD4680BDD9
:101E24000010024080B584B000AF786039607B68F0
:101E3400002B01D10123D0E06A4B1B6803F0070398
:101E44003A689A4210D9674B1B6823F00702654928
:101E54003B6813430B60634B1B6803F007033A684A
:101E64009A4201D00123B8E07B681B6803F00203A7
:101E7400002B20D07B681B6803F00403002B05D0E3
:101E8400594B5B68584A43F4E06353607B681B68B2
:101E940003F00803002B05D0534B5B68524A43F40C
:101EA40060535360504B5B6823F0F0027B689B687F
:101EB4004D4913434B607B681B6803F00103002BFF
:101EC40040D07B685B68012B07D1474B1B6803F448
:101ED4000033002B15D101237FE07B685B68022B64
:101EE40007D1414B1B6803F00073002B09D1012378
:101EF40073E03D4B1B6803F00203002B01D1012367
:101F04006BE0394B5B6823F003027B685B683649FE
:101F140013434B60FEF7F6FDF8600AE0FEF7F2FDAE
:101F24000246FB68D31A41F28832934201D9032353
:101F340053E02D4B5B6803F00C027B685B689B00ED
:101F44009A42EBD1274B1B6803F007033A689A4285
:101F540010D2244B1B6823F0070222493B68134329
:101F64000B60204B1B6803F007033A689A4201D0C8
:101F7400012332E07B681B6803F00403002B08D0C4
:101F8400194B5B6823F4E0627B68DB6816491343F2
:101F94004B607B681B6803F00803002B09D0124BCD
:101FA4005B6823F460527B681B69DB000E491343B2
:101FB4004B6000F021F802460B4B5B681B0903F0F1
:101FC4000F030A49CB5C22FA03F3094A1360094B55
:101FD4001B681846FEF754FD002318461037BD460B
:101FE40080BD00BF0020024000100240AC3C00084D
:101FF400000000200400002080B487B000AF00235C
:10200400FB600023BB6000237B6100237B60002313
:102014003B611E4B5B68FB60FB6803F00C03042B05
:1020240002D0082B03D027E0194B3B6127E0FB6863
:102034009B0C03F00F03174AD35C7B60FB6803F42B
:102044008033002B10D0114B5B685B0C03F0010351
:10205400114AD35CBB607B680D4A03FB02F2BB6888
:10206400B2FBF3F37B6104E07B680C4A02FB03F3ED
:102074007B617B693B6102E0054B3B6100BF3B69CF
:1020840018461C37BD4680BC704700BF0010024094
:1020940000127A00C43C0008D43C000800093D004A
:1020A40080B400AF024B1B681846BD4680BC704725
:1020B4000000002080B500AFFFF7F2FF0246054B99
:1020C4005B681B0A03F007030349CB5C22FA03F3A2
:1020D400184680BD00100240BC3C000880B500AF2B
:1020E400FFF7DEFF0246054B5B68DB0A03F00703DC
:1020F4000349CB5C22FA03F3184680BD001002406A
:10210400BC3C000880B485B000AF78600A4B1B6803
:102114000A4AA2FB03235B0A7A6802FB03F3FB600F
:1021240000BFFB685A1EFA60002BF9D100BF00BF44
:102134001437BD4680BC704700000020D34D6210A8
:1021440080B582B000AF78607B68002B01D1012399
:1021540042E07B6893F84130DBB2002B06D17B6808
:10216400002283F840207868FEF7D0FB7B682422A5
:1021740083F841207B681B68DA687B681B6822F45B
:102184000052DA60786800F0B7FD7B681B681A6952
:102194007B681B6822F490421A617B681B685A6949
:1021A4007B681B6822F02A025A617B681B68DA6824
:1021B4007B681B6842F40052DA607B6800225A6430
:1021C4007B68202283F841207B68202283F8422008
:1021D4007B6800225A63002318460837BD4680BD39
:1021E40080B58AB002AFF860B9603B601346FB80EB
:1021F40000237B61FB6893F84130DBB2202B75D15F
:10220400BB68002B02D0FB88002B01D101236EE0B8
:10221400FB6800225A64FB68212283F84120FEF700
:1022240071FC7861FB68FA889A84FB68FA88DA841E
:10223400FB689B68B3F5805F08D1FB681B69002BC2
:1022440004D10023FB61BB68BB6103E0BB68FB6195
:102254000023BB612EE03B6800937B690022802150
:10226400F86800F01CFB0346002B05D0FB68202215
:1022740083F8412003233AE0FB69002B0BD1BB69AF
:102284001B881A46FB681B68C2F308025A60BB69C4
:102294000233BB6107E0FB691A78FB681B685A606C
:1022A400FB690133FB61FB68DB8C9BB2013B9AB297
:1022B400FB68DA84FB68DB8C9BB2002BCBD13B68D8
:1022C40000937B6900224021F86800F0E8FA034695
:1022D400002B05D0FB68202283F84120032306E06D
:1022E400FB68202283F84120002300E002231846E3
:1022F4002037BD4680BD80B584B000AFF860B960BA
:102304001346FB80FB6893F84230DBB2202B12D1DA
:10231400BB68002B02D0FB88002B01D101230BE00A
:10232400FB6800221A63FB881A46B968F86800F053
:102334000FFB034600E0022318461037BD4680BD5C
:1023440080B5BAB000AF78607B681B681B68C7F8BB
:10235400E4307B681B68DB68C7F8E0307B681B6887
:102364005B69C7F8DC300023C7F8D8300023C7F80E
:10237400D430D7F8E43003F00F03C7F8D830D7F8D7
:10238400D830002B0FD1D7F8E43003F02003002B12
:1023940009D0D7F8E03003F02003002B03D078688D
:1023A40000F0ECFB5BE2D7F8D830002B00F0DE80C5
:1023B400D7F8DC3003F00103002B06D1D7F8E03066
:1023C40003F49073002B00F0D180D7F8E43003F0CD
:1023D4000103002B0BD0D7F8E03003F48073002BFB
:1023E40005D07B685B6C43F001027B685A64D7F8C4
:1023F400E43003F00403002B0BD0D7F8DC3003F0F7
:102404000103002B05D07B685B6C43F002027B6800
:102414005A64D7F8E43003F00203002B0BD0D7F84A
:10242400DC3003F00103002B05D07B685B6C43F0C8
:1024340004027B685A64D7F8E43003F00803002BE5
:1024440011D0D7F8E03003F02003002B05D1D7F8E2
:10245400DC3003F00103002B05D07B685B6C43F098
:1024640008027B685A647B685B6C002B00F0F28185
:10247400D7F8E43003F02003002B08D0D7F8E0307D
:1024840003F02003002B02D0786800F077FB7B6810
:102494001B685B6903F04003002B14BF0123002376
:1024A400DBB2C7F8D4307B685B6C03F00803002B05
:1024B40003D1D7F8D430002B4FD0786800F081FADC
:1024C4007B681B685B6903F04003002B41D07B6889
:1024D4001B681433C7F89C30D7F89C3053E8003F8E
:1024E400C7F89830D7F8983023F04003C7F8D030B5
:1024F4007B681B681433D7F8D020C7F8A820C7F826
:10250400A430D7F8A410D7F8A82041E80023C7F8CE
:10251400A030D7F8A030002BD9D17B68DB6B002B1F
:1025240013D07B68DB6B7E4A5A637B68DB6B18468F
:10253400FEF7D6FC0346002B16D07B68DB6B5B6B87
:102544007A68D26B104698470EE0786800F093F9E9
:102554000AE0786800F08FF906E0786800F08BF9FB
:102564007B6800225A6475E100BF73E17B681B6BD2
:10257400012B40F04F81D7F8E43003F01003002B17
:1025840000F04881D7F8E03003F01003002B00F08E
:1025940041810023BB607B681B681B68BB607B6850
:1025A4001B685B68BB60BB687B681B685B6903F086
:1025B4004003002B00F0B6807B68DB6B1B685B6814
:1025C400A7F8BE30B7F8BE30002B00F045817B6819
:1025D4009B8DB7F8BE209A4280F03E817B68B7F8A5
:1025E400BE20DA857B68DB6B9B69202B00F088803A
:1025F4007B681B680C33C7F88830D7F8883053E8F9
:10260400003FC7F88430D7F8843023F48073C7F8C8
:10261400B8307B681B680C33D7F8B820C7F894200F
:10262400C7F89030D7F89010D7F8942041E80023E9
:10263400C7F88C30D7F88C30002BD9D17B681B6855
:1026440014337B677B6F53E8003F3B673B6F23F09A
:102654000103C7F8B4307B681B681433D7F8B4207F
:10266400C7F88020FB67F96FD7F8802041E8002382
:10267400BB67BB6F002BE1D17B681B6814333B66DF
:102684003B6E53E8003FFB65FB6D23F04003C7F846
:10269400B0307B681B681433D7F8B020FA66BB6689
:1026A400B96EFA6E41E800237B667B6E002BE3D1A2
:1026B4007B68202283F842207B6800221A637B68AF
:1026C4001B680C33FB64FB6C53E8003FBB64BB6CBE
:1026D40023F01003C7F8AC307B681B680C33D7F8C1
:1026E400AC20BA657B65796DBA6D41E800233B6522
:1026F4003B6D002BE3D17B68DB6B1846FEF7B4FB24
:102704007B6802225A637B689A8D7B68DB8D9BB25F
:10271400D31A9BB21946786800F0B6F89CE000BF63
:102724008B2A00087B689A8D7B68DB8D9BB2D31A59
:10273400A7F8CE307B68DB8D9BB2002B00F08E8037
:10274400B7F8CE30002B00F089807B681B680C330F
:10275400BB63BB6B53E8003F7B637B6B23F49073D9
:10276400C7F8C8307B681B680C33D7F8C8207A6474
:102774003B64396C7A6C41E80023FB63FB6B002BF0
:10278400E3D17B681B6814337B627B6A53E8003FA8
:102794003B623B6A23F00103C7F8C4307B681B68C3
:1027A4001433D7F8C4203A63FB62F96A3A6B41E800
:1027B4000023BB62BB6A002BE3D17B68202283F831
:1027C40042207B6800221A637B681B680C333B61E0
:1027D4003B6953E8003FFB60FB6823F01003C7F834
:1027E400C0307B681B680C33D7F8C020FA61BB612A
:1027F400B969FA6941E800237B617B69002BE3D165
:102804007B6802225A63B7F8CE301946786800F024
:102814003BF823E0D7F8E43003F08003002B09D021
:10282400D7F8E03003F08003002B03D0786800F081
:102834003EF914E0D7F8E43003F04003002B0ED047
:10284400D7F8E03003F04003002B08D0786800F09C
:102854007DF904E000BF02E000BF00E000BFE837FC
:10286400BD4680BD80B483B000AF786000BF0C3734
:10287400BD4680BC704780B483B000AF786000BFB1
:102884000C37BD4680BC704780B483B000AF78601D
:102894000B467B8000BF0C37BD4680BC704780B5BB
:1028A40086B000AFF860B9603B601346FB713BE053
:1028B4003B6AB3F1FF3F37D0FEF724F902463B6889
:1028C400D31A3A6A9A4202D33B6A002B01D10323FA
:1028D4003AE0FB681B68DB6803F00403002B23D099
:1028E400BB68802B20D0BB68402B1DD0FB681B68C5
:1028F4001B6803F00803082B16D100237B61FB68D7
:102904001B681B687B61FB681B685B687B617B6978
:10291400F86800F056F8FB6808225A64FB68002245
:1029240083F8402001230FE0FB681B681A68BB682A
:102934001340BA689A420CBF01230023DBB21A4643
:10294400FB799A42B4D0002318461837BD4680BD9F
:1029540080B485B000AFF860B9601346FB80FB68B3
:10296400BA689A62FB68FA889A85FB68FA88DA85FD
:10297400FB6800225A64FB68222283F84220FB6829
:102984001B69002B07D0FB681B68DA68FB681B68AF
:1029940042F48072DA60FB681B685A69FB681B6842
:1029A40042F001025A61FB681B68DA68FB681B6825
:1029B40042F02002DA60002318461437BD4680BC7A
:1029C400704780B495B000AF78607B681B680C33A7
:1029D4007B637B6B53E8003F3B633B6B23F4907357
:1029E400FB647B681B680C33FA6C3A64FB63F96B19
:1029F4003A6C41E80023BB63BB6B002BE5D17B68D9
:102A04001B6814333B623B6A53E8003FFB61FB697C
:102A140023F00103BB647B681B681433BA6CFA624D
:102A2400BB62B96AFA6A41E800237B627B6A002BC5
:102A3400E5D17B681B6B012B19D17B681B680C33B8
:102A4400FB60FB6853E8003FBB60BB6823F01003E6
:102A54007B647B681B680C337A6CBA617B6179692F
:102A6400BA6941E800233B613B69002BE5D17B68EF
:102A7400202283F842207B6800221A6300BF543767
:102A8400BD4680BC704780B584B000AF78607B6879
:102A94005B6AFB60FB680022DA85FB680022DA844B
:102AA400F868FFF7E8FE00BF1037BD4680BD80B46C
:102AB40085B000AF78607B6893F84130DBB2212B9E
:102AC4003ED17B689B68B3F5805F14D17B681B693A
:102AD400002B10D17B681B6AFB60FB681B881A46BD
:102AE4007B681B68C2F308025A607B681B6A9A1CE5
:102AF4007B681A6208E07B681B6A591C7A68116259
:102B04001A787B681B685A607B68DB8C9BB2013B3C
:102B14009BB27A681946D184002B0FD17B681B685D
:102B2400DA687B681B6822F08002DA607B681B68C5
:102B3400DA687B681B6842F04002DA60002300E038
:102B4400022318461437BD4680BC704780B582B056
:102B540000AF78607B681B68DA687B681B6822F0CA
:102B64004002DA607B68202283F841207868FFF70E
:102B740079FE002318460837BD4680BD80B58CB069
:102B840000AF78607B6893F84230DBB2222B40F0D0
:102B9400AE807B689B68B3F5805F17D17B681B6947
:102BA400002B13D10023FB627B689B6ABB627B68AA
:102BB4001B685B689BB2C3F308039AB2BB6A1A80B2
:102BC4007B689B6A9A1C7B689A6226E07B689B6A96
:102BD400FB620023BB627B689B68B3F5805F07D010
:102BE4007B689B68002B0AD17B681B69002B06D18C
:102BF4007B681B685B68DAB2FB6A1A7008E07B6862
:102C04001B685B68DBB203F07F03DAB2FB6A1A70FD
:102C14007B689B6A5A1C7B689A627B68DB8D9BB2DB
:102C2400013B9BB27A681946D185002B5DD17B6844
:102C34001B68DA687B681B6822F02002DA607B6814
:102C44001B68DA687B681B6822F48072DA607B6830
:102C54001B685A697B681B6822F001025A617B6811
:102C6400202283F842207B6800225A637B681B6B16
:102C7400012B35D17B6800221A637B681B680C33F7
:102C84007B617B6953E8003F3B613B6923F01003A0
:102C94007B627B681B680C337A6A3A62FB61F96970
:102CA4003A6A41E80023BB61BB69002BE5D17B682C
:102CB4001B681B6803F01003102B0AD10023FB6070
:102CC4007B681B681B68FB607B681B685B68FB6038
:102CD400FB687B689B8D19467868FFF7D5FD02E099
:102CE4007868FDF7D5FB002302E0002300E002230F
:102CF40018463037BD4680BD80B584B000AF7860DB
:102D04007B681B681B6923F440517B68DA687B6825
:102D14001B680A431A617B689A687B681B691A43BB
:102D24007B685B691343BB607B681B68DB6823F4C7
:102D3400B05323F00C037A681268B9680B43D3606C
:102D44007B681B685B6923F440717B689A697B68C4
:102D54001B680A435A617B681B682C4A934203D15F
:102D6400FFF7BCF9F86002E0FFF7A4F9F860FA682D
:102D740013469B0013449A001A447B685B689B00CB
:102D8400B2FBF3F3224AA2FB03235B091901FA689D
:102D940013469B0013449A001A447B685B689B00AB
:102DA400B2FBF3F21A4BA3FB02035B09642000FBA2
:102DB40003F3D31A1B013233154AA2FB03235B0925
:102DC40003F0F0031944FA6813469B0013449A0075
:102DD4001A447B685B689B00B2FBF3F20C4BA3FBC9
:102DE40002035B09642000FB03F3D31A1B01323393
:102DF400074AA2FB03235B0903F00F027B681B68ED
:102E04000A449A6000BF1037BD4680BD00380140B7
:102E14001F85EB51002310B50446C0E90033C0E917
:102E24000433836081814366C28183611946082229
:102E34005C3000F006F90D4B246263620C4BA36214
:102E44000C4BE3620C4B23630C4B9C4206D003F106
:102E54006802944202D0D0339C4205D104F1580058
:102E6400BDE8104000F066B910BD00BFC12F0008D6
:102E7400E32F00081B3000083F3000082801002021
:102E8400024A0349034800F069B800BF0C0000205F
:102E9400CD3900081C00002041680C4B10B5994244
:102EA400044601D000F090FDA168094B994202D07C
:102EB400204600F089FDE168064B994204D0204683
:102EC400BDE8104000F080BD10BD00BF2801002007
:102ED40090010020F801002010B50B4B0B4C0C4A5C
:102EE40020461A6004210022FFF794FF04F16800D1
:102EF40001220921FFF78EFF04F1D0000222BDE870
:102F040010401221FFF786BF600200202801002034
:102F1400852E0008014800F00EB900BF69020020A8
:102F2400014800F009B900BF6902002010B5044649
:102F3400FFF7F0FF236A1BB1BDE81040FFF7F0BFB5
:102F4400044B2362044B1B68002BF5D1FFF7C4FF2D
:102F5400F2E700BF9D2E0008600200202DE9F8432F
:102F64000746884614460026D4E90195B9F10109BB
:102F740005D52468002CF7D13046BDE8F883AB8929
:102F8400012B07D9B5F90E30013303D02946384651
:102F9400C04706436835E9E70FB407B5064904ABF3
:102FA400086853F8042B8168019300F0E5F903B035
:102FB4005DF804EB04B070471800002010B50C460F
:102FC400B1F90E1000F068F80028ABBF636DA38957
:102FD4001B1823F48053ACBF6365A38110BD2DE996
:102FE400F0411F468B890546DB050C46164605D580
:102FF40002230022B1F90E1000F03CF8A3893246F6
:1030040023F48053A38128463B46B4F90E10BDE84F
:10301400F04100F053B810B50C46B1F90E1000F0B1
:1030240029F8431CA38915BF606523F4805343F436
:103034008053A38118BFA38110BDB1F90E1000F015
:1030440009B803460244934200D1704703F8011BB8
:10305400F9E7000038B50023054D044608462B6007
:10306400FDF7BDFB431C02D12B6803B1236038BDBF
:103074006402002038B50446084611460022054D76
:103084002A601A46FDF7CFFB431C02D12B6803B11B
:10309400236038BD6402002038B504460846114652
:1030A4000022054D2A601A46FDF760FB431C02D13D
:1030B4002B6803B1236038BD6402002038B5044690
:1030C400084611460022054D2A601A46FDF76BFB9F
:1030D400431C02D12B6803B1236038BD6402002075
:1030E400014B1868704700BF1800002070B5002617
:1030F4000C4D0D4C641BA410A64209D100F0C2FD76
:1031040000260A4D0A4C641BA410A64205D170BDCA
:1031140055F8043B98470136EEE755F8043B9847C9
:103124000136F2E70C3D00080C3D00080C3D000898
:10313400103D0008704770477047000038B50546D9
:10314400002940D051F8043C0C1F002BB8BFE418F0
:1031540000F0DEF81C4A136833B963601460284633
:10316400BDE8384000F0DAB8A34208D92068211835
:103174008B4201BF19685B6809182160EDE71A46A4
:103184005B680BB1A342FAD911685018A0420BD165
:1031940020680144501883421160E0D118685B68CC
:1031A400084410605360DAE702D90C232B60D6E799
:1031B400206821188B4201BF19685B6809182160D7
:1031C40063605460CBE738BD7002002070B50F4EC9
:1031D4000C463168054611B900F0B2FC3060214656
:1031E400284600F0ADFC431C03D14FF0FF342046C9
:1031F40070BDC41C24F00304A042F8D0211A284650
:1032040000F09EFC0130F2D1EFE700BF6C02002019
:103214002DE9F843CD1C25F0030508350C2D38BFE6
:103224000C25002D064601DBA94204D90C2333608A
:103234000020BDE8F883DFF8D48000F069F8D8F8FE
:1032440000301C4644BB29463046FFF7BFFF431CF1
:10325400044658D1D8F800402746002F43D1002C0B
:103264004BD023683946304604EB030900F068FC70
:10327400814542D1216830466D1A2946FFF7A6FFE1
:1032840001303AD023682B442360D8F800305A68C0
:1032940062BBC8F800700FE02268521B20D40B2ACE
:1032A40017D96119A342256018BF5960636808BF24
:1032B400C8F8001062514B60304600F02FF804F15A
:1032C4000B00231D20F00700C21A1CBF1B1AA350B9
:1032D400AFE76268A3420CBFC8F800205A60EBE76E
:1032E40023466468AEE73C467F68B6E71A465B68E7
:1032F400A342FBD100235360DEE70C233046336046
:1033040000F00CF894E70560D6E700BF70020020D7
:103314000148FFF710BF00BF680200200148FFF713
:103324000BBF00BF68020020936810B4013B002B60
:10333400936007DA9469A34201DB0A2902D110BC25
:1033440000F06ABB1368581C10601970084610BC62
:103354007047F8B506460F461446D518AC4201D15D
:10336400002007E03A46304614F8011BFFF7DCFF63
:10337400431CF3D1F8BD00002DE9F04F0D4614466F
:10338400984606469DB018B1036A0BB9FFF7CEFD07
:103394006B6ED90705D4AB899A0502D4A86DFFF7E3
:1033A400CAFEAB891B0701D52B699BB92946304658
:1033B40000F070FB70B16B6EDC0704D54FF0FF308A
:1033C4001DB0BDE8F08FAB899805F7D4A86DFFF761
:1033D400B3FEF3E70023099320238DF8293030232B
:1033E4004FF00109CDF80C80DFF8A8818DF82A3060
:1033F40023469A4613F8012B0AB1252AF9D1BAEBD0
:10340400040B0BD05B46224629463046FFF7A1FF4A
:10341400013000F0A780099A5A4409929AF80030C2
:10342400002B00F09F8000234FF0FF32CDE90523ED
:103434000AF1010A049307938DF853301A93544602
:10344400052214F8011B534800F08AFB049AD8B9EA
:10345400D10644BF20238DF85330130744BF2B23D8
:103464008DF853309AF800302A2B15D0544600209A
:103474004FF00A0C079A214611F8013B303B092B07
:103484004BD9B0B1079214E0A0EB080309FA03F397
:103494001343A2460493D2E7039B191D1B680391AF
:1034A400002BBBBF5B4242F0020207930793B8BFF5
:1034B400049223782E2B0AD163782A2B32D1039BD2
:1034C40002341A1D1B68039243EAE3730593DFF881
:1034D400C8A003225046217800F042FB38B14022B4
:1034E400049BA0EB0A00824013430134049314F8B4
:1034F400011B062229488DF8281000F031FB002812
:103504003FD0274B1BBB039B073323F00703083330
:103514000393099B3B4409936AE70C4601200CFB87
:103524000232A8E700234FF00A0C19460134059330
:10353400204610F8012B303A092A03D9002BC6D0B3
:103544000591C4E7044601230CFB0121F0E703AB1A
:1035540000932A463046134B04A9AFF30080074674
:10356400781CD6D16B6ED90705D4AB899A0502D4E1
:10357400A86DFFF7E1FDAB895B063FF51FAF099826
:103584001EE703AB00932A463046064B04A900F01D
:103594007DF8E4E7D63C0008DC3C0008E03C000889
:1035A40000000000573300082DE9F04716469846FE
:1035B4008A680B6907469342B8BF1346336091F893
:1035C40043200C46DDF820900AB1013333602368B0
:1035D400990642BF336802333360256815F0060547
:1035E40006D104F1190AE36832689B1AAB422BDC5A
:1035F40094F843302268003B18BF0123920630D46C
:103604004146384604F14302C847013023D02368B9
:10361400226903F00603042B14BF002533684FF01E
:10362400000608BFE56804F11A0408BFED1A54F84F
:10363400123C08BF25EAE5759342C4BF9B1AED18F6
:10364400B5421AD1002008E00123524641463846CB
:10365400C847013003D14FF0FF30BDE8F087013592
:10366400C1E73020E11881F843005A1C94F8451052
:103674002244023382F84310C2E701232246414622
:103684003846C8470130E6D00136D9E72DE9FF476F
:103694000F7E9146782F80460C469A460C9E01F187
:1036A400430207D8622F0AD8002F00F0D180582F88
:1036B40000F0B88004F1420684F842703AE0A7F1C1
:1036C4006303152BF6D801A151F823F0293700081C
:1036D4003D370008B9360008B9360008B936000885
:1036E400B93600083D370008B9360008B936000875
:1036F400B9360008B93600083B38000867370008B7
:10370400F5370008B9360008B93600085D380008F6
:10371400B936000867370008B9360008B93600081A
:10372400FD37000833681A1D1B68326004F1420635
:1037340084F8423001239CE033682068191D31600D
:10374400060601D51D6803E04506FBD5B3F9005014
:10375400002D03DA2D236D4284F843300A235848A0
:1037640011E021683368080653F8045B02D4490663
:1037740048BFADB26F2F336014BF0A2308235048EB
:10378400002184F843106668002EA66005DB2168DA
:103794002E4321F0040121604BD01646B5FBF3F112
:1037A40003FB1157C75D06F8017D2F46BB420D464A
:1037B400F4D9082B0BD12368DF0708D52369616886
:1037C4009942DEBF302306F8013C06F1FF36921B16
:1037D40022614B4621464046CDF800A003AAFFF7DC
:1037E400E3FE01304AD14FF0FF3004B0BDE8F0876A
:1037F400236843F0200323607827324884F8457017
:10380400236831681F0651F8045B02D45F0648BF81
:10381400ADB23160D90744BF43F0200323601DB12A
:103824001023ADE72648E9E7236823F0200323604B
:10383400F6E71646BDE733682568181D61693060F0
:103844002E061B6801D5196002E06806FBD51980B5
:10385400002316462361BCE7336800211A1D326039
:103864001E686268304600F07BF908B1801B606016
:1038740063682361002384F84330AAE7324649464B
:1038840040462369D0470130ADD023689B0713D449
:10389400E068039B9842B8BF1846A6E70123324666
:1038A40049464046D04701309DD00135E36803992D
:1038B4005B1AAB42F2DCEBE7002504F11906F5E7ED
:1038C400E73C0008F83C0008B1F90C20F8B51607ED
:1038D40005460C4654D44B68002B02DC0B6C002BC1
:1038E40048DDE66A002E45D0002312F480522F688A
:1038F400216A2B6030D0626DA389590705D56368AE
:10390400D21A636B0BB1236CD21A00232846E66AE1
:10391400216AB047431CA38906D129681D292BD8E5
:10392400284ACA40D60727D5002262602269D904F2
:10393400226004D5421C01D12B6803B96065616B18
:103944002F60B9B104F14403994202D02846FFF72D
:10395400F5FB002363630DE001232846B0470246CC
:10396400501CC9D12B68002BC6D01D2B01D0162B9F
:103974001DD12F60002021E043F040031BB21AE068
:103984000F69002FF6D0930718BF00230E6808BFF5
:103994004B69F61B0F608B60002EEBDD33463A4615
:1039A4002846216AD4F828C0E047002807DCB4F987
:1039B4000C3043F040034FF0FF30A381F8BD0744BF
:1039C400361AE9E70100402038B50B6905460C4674
:1039D40013B90025284638BD18B1036A0BB9FFF79F
:1039E400A5FAB4F90C30002BF3D0626ED00704D4DE
:1039F400990502D4A06DFFF79EFB28462146FFF7E8
:103A040063FF636E0546DA07E4D4A3899B05E1D41A
:103A1400A06DFFF791FBDDE7F8B50E4614460546A9
:103A240018B1036A0BB9FFF781FAA369A360A389EC
:103A34001A0701D5236943B92146284600F02AF81C
:103A440018B14FF0FF373846F8BD23682269F6B243
:103A5400981A63693746834205DC21462846FFF7F6
:103A6400B3FF0028EDD1A368013BA36023685A1C6F
:103A740022601E706269431C9A4204D0A389DB074A
:103A8400E1D50A2EDFD121462846FFF79DFF002805
:103A9400D9D0D6E738B5294B054618680C4618B175
:103AA400036A0BB9FFF742FAB4F90C30190722D4B0
:103AB400DA0607D409222A6043F040034FF0FF30AE
:103AC400A38133E0580712D5616B41B104F144037B
:103AD400994202D02846FFF731FB00236363A38990
:103AE40023F02403A3810023636023692360A38953
:103AF40043F00803A38123694BB9A38903F420731A
:103B0400B3F5007F03D02146284600F05CF8B4F9F1
:103B14000C3013F001020AD00022A2606269524202
:103B2400A261226942B913F08000C5D138BD99075A
:103B340058BF6269A260F4E70020F7E7180000208C
:103B440038B50023054D044608462B60FCF778FE83
:103B5400431C02D12B6803B1236038BD64020020EA
:103B6400034610B5C9B202449342184601D100205D
:103B740003E0047801338C42F6D110BD70B50C46D5
:103B8400B1F90E10154600291E4696B00CDAA38929
:103B9400002113F0800F14BF40234FF480630020F2
:103BA40031602B6016B070BD6A4600F049F80028F9
:103BB400EDDB019901F47041A1F5005359425941DB
:103BC4004FF48063EBE78B89F7B59D0706460C46F7
:103BD40007D504F14703236023610123636103B024
:103BE400F0BD6A4601ABFFF7C9FF009F05463946A1
:103BF4003046FFF70DFB48B9B4F90C309A05EED402
:103C040023F0030343F00203A381E2E7A389C4E999
:103C1400040743F08003A381019B20605BB130461D
:103C2400B4F90E1000F01EF828B1A38923F00303A1
:103C340043F00103A381A3891D43A581CFE70000BD
:103C440038B50023064D0446084611462B60FCF7A0
:103C5400D1FD431C02D12B6803B1236038BD00BFE2
:103C64006402002038B50023054D044608462B6045
:103C7400FCF7CFFD431C02D12B6803B1236038BD90
:103C840064020020F8B500BFF8BC08BC9E4670472B
:0C3C9400F8B500BFF8BC08BC9E467047A5
:103CA00070726573733A25640A000000000000001A
:103CB00000000000010203040607080900000000DC
:103CC0000102030402030405060708090A0B0C0D90
:103CD0000E0F10100102232D302B2000686C4C00B9
:103CE00065666745464700303132333435363738FC
:103CF000394142434445460030313233343536375A
:0C3D0000383961626364656600000000F1
:043D0C0009020008A0
:043D1000E5010008C1
:103D14000024F40010000000010000000000000076
:103D240003000000280100201C0000200000000007
:103D34002801002090010020F8010020000000006C
:103D4400000000000000000000000000000000006F
:103D5400000000000000000000000000000000005F
:103D6400000000000000000000000000000000004F
:083D7400000000000000000047
:0400000508000A0DD8
:00000001FF
