:020000040800F2
:1000000000C00020850700083107000839070008F4
:1000100041070008490700085107000800000000D8
:10002000000000000000000000000000912800080F
:100030005907000800000000712A0008B92A0008CA
:10004000CD070008CD070008CD070008CD07000840
:10005000CD070008CD070008CD070008CD07000830
:10006000CD070008CD070008CD070008CD07000820
:10007000CD070008CD070008CD070008CD07000810
:10008000CD070008CD070008CD070008CD07000800
:10009000CD070008CD070008CD070008CD070008F0
:1000A000CD070008CD070008CD070008CD070008E0
:1000B000CD070008CD070008CD070008CD070008D0
:1000C000CD070008CD070008CD070008CD070008C0
:1000D000CD070008CD070008CD070008CD070008B0
:1000E000CD070008CD070008CD070008CD070008A0
:1000F000CD070008CD070008CD070008CD07000890
:10010000CD070008CD070008CD070008CD0700087F
:10011000CD070008CD07000865070008CD070008D7
:10012000CD070008CD070008CD070008CD0700085F
:1001300000000000000000000000000000000000BF
:1001400000000000000000000000000000000000AF
:10015000000000000000000000000000000000009F
:10016000000000000000000000000000000000008F
:10017000000000000000000000000000000000007F
:10018000000000000000000000000000000000006F
:10019000000000000000000000000000000000005F
:1001A000000000000000000000000000000000004F
:1001B000000000000000000000000000000000003F
:1001C000000000000000000000000000000000002F
:1001D000000000000000000000000000000000001F
:0401E0005FF8E0F1F3
:1001F00010B5054C237833B9044B13B10448AFF361
:1002000000800123237010BD60000020000000006A
:10021000D830000808B5034B1BB103490348AFF3BE
:10022000008008BD0000000064000020D8300008F5
:1002300080B500AF0421054800F070FD0346002B97
:1002400001D1012300E00023184680BD00140140C5
:1002500080B582B000AF0346FB71FFF7E9FF0346AC
:10026000012B0ED10E4B1B881A46FB7901335B0024
:100270009A4209DA0A4B1B8801339AB2084B1A805A
:1002800002E0074B00221A80054B1B88022B01D18C
:10029000012300E0002318460837BD4680BD00BF9B
:1002A0007C00002080B500AF4FF40051034800F0FF
:1002B00064FD642001F074FC00BFF5E7001001400C
:1002C00080B500AF0E4B1B68002B10D001222021FF
:1002D0000C4800F03AFD642001F062FC002220216D
:1002E000084800F032FD642001F05AFCEAE70022E1
:1002F0002021044800F029FD642001F051FCE1E7D1
:10030000800000200010014080B500AF0120FFF701
:100310009FFF0346012B09D1064B1B68002B0CBF26
:1003200001230023DBB21A46024B1A600A2001F0B7
:1003300037FCEBE78000002080B485B000AFF860A8
:10034000B9607A60FB68064A1A60BB68054A1A60A1
:100350007B6880221A6000BF1437BD4680BC70479E
:100360009000002030010020B0B596B000AF1D4BCA
:1003700007F13C041D460FCD0FC495E8070084E843
:10038000070007F13C030021184601F0BDFB0346BE
:10039000154A1360154B07F120041D460FCD0FC4FD
:1003A00095E8070084E8070007F1200300211846BC
:1003B00001F0AAFB03460E4A13600E4B3C1D1D467E
:1003C0000FCD0FC495E8070084E807003B1D00210E
:1003D000184601F099FB0346074A136000BF5837DF
:1003E000BD46B0BDFC300008840000202431000868
:1003F000880000204C3100088C00002080B582B0BD
:1004000000AF7860FFF74EFF00BF0837BD4680BDE4
:1004100080B582B000AF7860FFF752FF00BF0837A9
:10042000BD4680BD80B582B000AF7860FFF76CFF3D
:1004300000BF0837BD4680BD80B588B000AF07F16A
:10044000100300221A605A609A60DA60244B9B699C
:10045000234A43F010039361214B9B6903F010037F
:10046000FB60FB681E4B9B691D4A43F020039361B0
:100470001B4B9B6903F02003BB60BB68184B9B6957
:10048000174A43F004039361154B9B6903F004037F
:100490007B607B68002242F22001124800F055FC8C
:1004A00042F220033B6101237B610023BB610223F5
:1004B000FB6107F1100319460A4800F09BFA042378
:1004C0003B6100237B610123BB6107F110031946E7
:1004D000054800F08FFA00BF2037BD4680BD00BF41
:1004E00000100240001001400014014080B500AF30
:1004F00000F06EF900F008F8FFF79EFFFFF734FFF9
:1005000001F0FBFA00BFFDE780B590B000AF07F146
:10051000180328220021184602F0FEFC3B1D002291
:100520001A605A609A60DA601A610123BB614FF465
:100530008033FB6100233B620123BB6202237B63A8
:100540004FF48033BB634FF4E013FB6307F11803F0
:10055000184600F02BFC0346002B01D000F02CF8CD
:100560000F237B600223BB600023FB604FF480639A
:100570003B6100237B613B1D0221184600F098FE81
:100580000346002B01D000F017F800BF4037BD46EE
:1005900080BD000080B582B000AF78607B681B68CA
:1005A000044A934201D100F029F900BF0837BD4643
:1005B00080BD00BF0010004080B400AF72B600BF25
:1005C00000BFFDE780B584B000AF184B9B69174AA8
:1005D00043F001039361154B9B6903F00103BB607A
:1005E000BB68124BDB69114A43F08053D3610F4B58
:1005F000DB6903F080537B607B6800220F216FF082
:10060000010000F0CCF90A4B5B68FB60FB6823F04B
:10061000E063FB60FB6843F00073FB60044AFB6827
:10062000536000BF1037BD4680BD00BF00100240C0
:100630000000014080B58EB000AF78600023FB62FF
:100640000023BB62002387F83330344BDB69334A25
:1006500043F01003D361314BDB6903F01003FB60FF
:10066000FB6807F1100207F114031146184600F069
:100670007BFF3B6AFB62FB6A002B03D100F060FF4B
:10068000786304E000F05CFF03465B007B637B6BF8
:10069000234AA2FB03239B0C013BBB62214B224A52
:1006A0001A60204B40F2E732DA601E4ABB6A5360A0
:1006B0001C4B00221A611B4B00229A60194B00222E
:1006C0009A61184800F09EFF034687F8333097F888
:1006D0003330002B1BD1134800F0ECFF034687F8A2
:1006E000333097F83330002B11D1362000F073F9F6
:1006F0007B680F2B08D800227968362000F04FF96C
:100700000A4A7B68136002E0012387F8333097F8C8
:10071000333018463837BD4680BD00BF0010024058
:1007200083DE1B4330030020001000400400002043
:1007300080B400AF00BFFDE780B400AF00BFFDE7AD
:1007400080B400AF00BFFDE780B400AF00BFFDE79D
:1007500080B400AF00BFFDE780B400AF00BFBD466E
:1007600080BC704780B500AF024801F003F800BFBD
:1007700080BD00BF3003002080B400AF00BFBD4685
:1007800080BC70470C480D490D4A002302E0D45844
:10079000C4500433C4188C42F9D30A4A0A4C0023CB
:1007A00001E013600432A242FBD3FFF7E5FF02F041
:1007B00019FCFFF79BFE704700000020600000203E
:1007C000A43100086000002010120020FEE70000A5
:1007D00080B500AF084B1B68074A43F01003136055
:1007E000032000F0D1F80F20FFF724FFFFF7EAFE07
:1007F0000023184680BD00BF0020024080B400AF37
:10080000054B1B781A46054B1B681344034A1360BB
:1008100000BFBD4680BC7047080000207803002060
:1008200080B400AF024B1B681846BD4680BC7047C1
:100830007803002080B485B000AF78607B6803F057
:100840000703FB600C4BDB68BB60BA684FF6FF0325
:100850001340BB60FB681A02BB68134343F0BF63DD
:1008600043F40033BB60044ABB68D36000BF143755
:10087000BD4680BC704700BF00ED00E080B400AF13
:10088000044BDB681B0A03F007031846BD4680BC17
:10089000704700BF00ED00E080B483B000AF0346B6
:1008A000FB7197F90730002B0BDBFB7903F01F027C
:1008B000064997F907305B09012000FA02F241F876
:1008C000232000BF0C37BD4680BC704700E100E02C
:1008D00080B483B000AF03463960FB7197F90730ED
:1008E000002B0ADB3B68DAB20C4997F9073012019A
:1008F000D2B20B4483F800230AE03B68DAB208491D
:10090000FB7903F00F03043B1201D2B20B441A76B9
:1009100000BF0C37BD4680BC704700BF00E100E05F
:1009200000ED00E080B489B000AFF860B9607A6093
:10093000FB6803F00703FB61FB69C3F10703042BAA
:1009400028BF0423BB61FB690433062B02D9FB6972
:10095000033B00E000237B614FF0FF32BB6902FAEA
:1009600003F3DA43BB681A407B699A404FF0FF31CA
:100970007B6901FA03F3D9437B680B4013431846A4
:100980002437BD4680BC704780B582B000AF786028
:100990007868FFF74FFF00BF0837BD4680BD80B5C0
:1009A00086B000AF0346B9607A60FB7300237B61B9
:1009B000FFF764FF78617A68B9687869FFF7B2FF7A
:1009C000024697F90F3011461846FFF781FF00BF26
:1009D0001837BD4680BD80B582B000AF0346FB71BD
:1009E00097F907301846FFF757FF00BF0837BD4695
:1009F00080BD000080B48BB000AF78603960002308
:100A00007B6200233B6279E101227B6A02FA03F3F5
:100A1000FB613B681B68FA691340BB61BA69FB69FB
:100A20009A4240F068813B685B68964A93425ED088
:100A3000944A934275D8944A934258D0924A93422A
:100A40006FD8924A934252D0904A934269D8904AC2
:100A500093424CD08E4A934263D88E4A934246D0FA
:100A60008C4A93425DD8122B2AD8122B59D801A256
:100A700052F823F0EF0A0008C90A0008DB0A000850
:100A80001D0B0008230B0008230B0008230B000894
:100A9000230B0008230B0008230B0008230B00087E
:100AA000230B0008230B0008230B0008230B00086E
:100AB000230B0008230B0008D10A0008E50A0008F0
:100AC000754A934213D02CE03B68DB683B6229E017
:100AD0003B68DB6804333B6224E03B68DB68083337
:100AE0003B621FE03B68DB680C333B621AE03B680B
:100AF0009B68002B02D104233B6213E03B689B6898
:100B0000012B05D108233B627B68FA691A6109E071
:100B100008233B627B68FA695A6103E000233B6269
:100B200000E000BFBB69FF2B01D87B6801E07B6858
:100B300004337B61BB69FF2B02D87B6A9B0002E018
:100B40007B6A083B9B003B617B691A680F213B690C
:100B500001FA03F3DB431A40396A3B6901FA03F3F4
:100B60001A437B691A603B685B6803F08053002B73
:100B700000F0C180494B9B69484A43F001039361EF
:100B8000464B9B6903F00103BB60BB68444A7B6A28
:100B90009B08023352F82330FB607B6A03F00303A7
:100BA0009B000F2202FA03F3DB43FA681340FB6059
:100BB0007B683C4A93421FD07B683B4A934219D0E2
:100BC0007B683A4A934213D07B68394A93420DD0EE
:100BD0007B68384A934207D07B68374A934201D1F9
:100BE00005230AE0062308E0042306E0032304E0CB
:100BF000022302E0012300E000237A6A02F00302EC
:100C000092009340FA681343FB6025497B6A9B0876
:100C10000233FA6841F823203B685B6803F48013D1
:100C2000002B06D0254B9A682449BB6913438B607F
:100C300006E0224B9A68BB69DB43204913408B6076
:100C40003B685B6803F40013002B06D01B4BDA688B
:100C50001A49BB691343CB6006E0184BDA68BB69DD
:100C6000DB4316491340CB603B685B6803F40033F9
:100C7000002B25D0114B5A681049BB6913434B60B8
:100C800025E000BF000032100000311000002210EB
:100C9000000021100000121000001110001002408E
:100CA0000000014000080140000C0140001001401C
:100CB0000014014000180140001C014000040140E4
:100CC000154B5A68BB69DB43134913404B603B68C3
:100CD0005B6803F48033002B06D00F4B1A680E4973
:100CE000BB6913430B6006E00B4B1A68BB69DB431F
:100CF000094913400B607B6A01337B623B681A68C9
:100D00007B6A22FA03F3002B7FF47EAE00BF00BFA4
:100D10002C37BD4680BC70470004014080B485B0CC
:100D200000AF78600B467B807B689A687B881340B5
:100D3000002B02D00123FB7301E00023FB73FB7B3C
:100D400018461437BD4680BC704780B483B000AFEE
:100D500078600B467B8013467B707B78002B03D03A
:100D60007A887B681A6103E07B881A047B681A61C1
:100D700000BF0C37BD4680BC704780B485B000AF63
:100D800078600B467B807B68DB68FB607A88FB6859
:100D900013401A04FB68D9437B880B401A437B68D5
:100DA0001A6100BF1437BD4680BC704780B586B05D
:100DB00000AF78607B68002B01D1012372E27B6871
:100DC0001B6803F00103002B00F08780924B5B68E7
:100DD00003F00C03042B0CD08F4B5B6803F00C0367
:100DE000082B12D18C4B5B6803F48033B3F5803F42
:100DF0000BD1894B1B6803F40033002B6CD07B684C
:100E00005B68002B68D101234CE27B685B68B3F51B
:100E1000803F06D1804B1B687F4A43F480331360C8
:100E20002EE07B685B68002B0CD17B4B1B687A4AF9
:100E300023F480331360784B1B68774A23F48023B4
:100E400013601DE07B685B68B3F5A02F0CD1724B7B
:100E50001B68714A43F4802313606F4B1B686E4A12
:100E600043F4803313600BE06B4B1B686A4A23F436
:100E700080331360684B1B68674A23F48023136038
:100E80007B685B68002B13D0FFF7CAFC386108E071
:100E9000FFF7C6FC02463B69D31A642B01D9032332
:100EA00000E25D4B1B6803F40033002BF0D014E02C
:100EB000FFF7B6FC386108E0FFF7B2FC02463B6979
:100EC000D31A642B01D90323ECE1534B1B6803F4C1
:100ED0000033002BF0D100E000BF7B681B6803F0FB
:100EE0000203002B63D04C4B5B6803F00C03002B18
:100EF0000BD0494B5B6803F00C03082B1CD1464B0D
:100F00005B6803F48033002B16D1434B1B6803F05E
:100F10000203002B05D07B681B69012B01D0012344
:100F2000C0E13D4B1B6823F0F8027B685B69DB0086
:100F3000394913430B603AE07B681B69002B20D0D2
:100F4000364B01221A60FFF76BFC386108E0FFF7AF
:100F500067FC02463B69D31A022B01D90323A1E1A6
:100F60002D4B1B6803F00203002BF0D02A4B1B68AB
:100F700023F0F8027B685B69DB00274913430B60B1
:100F800015E0264B00221A60FFF74AFC386108E0A2
:100F9000FFF746FC02463B69D31A022B01D9032313
:100FA00080E11D4B1B6803F00203002BF0D17B682E
:100FB0001B6803F00803002B3AD07B689B69002B69
:100FC00019D0174B01221A60FFF72AFC386108E09C
:100FD000FFF726FC02463B69D31A022B01D90323F3
:100FE00060E10D4B5B6A03F00203002BF0D001209F
:100FF00000F0EAFA1CE00A4B00221A60FFF710FC2E
:1010000038610FE0FFF70CFC02463B69D31A022B54
:1010100008D9032346E100BF00100240000042420D
:1010200080044242924B5B6A03F00203002BE9D139
:101030007B681B6803F00403002B00F0A6800023EC
:10104000FB758B4BDB6903F08053002B0DD1884B74
:10105000DB69874A43F08053D361854BDB6903F03A
:101060008053BB60BB680123FB75824B1B6803F494
:101070008073002B18D17F4B1B687E4A43F480732A
:101080001360FFF7CDFB386108E0FFF7C9FB0246AC
:101090003B69D31A642B01D9032303E1754B1B6809
:1010A00003F48073002BF0D07B68DB68012B06D142
:1010B0006F4B1B6A6E4A43F0010313622DE07B689D
:1010C000DB68002B0CD16A4B1B6A694A23F00103D1
:1010D0001362674B1B6A664A23F0040313621CE029
:1010E0007B68DB68052B0CD1614B1B6A604A43F0BF
:1010F000040313625E4B1B6A5D4A43F001031362F3
:101100000BE05B4B1B6A5A4A23F001031362584BF6
:101110001B6A574A23F0040313627B68DB68002BC9
:1011200015D0FFF77DFB38610AE0FFF779FB024637
:101130003B69D31A41F28832934201D90323B1E0CB
:101140004B4B1B6A03F00203002BEED014E0FFF7B9
:1011500067FB38610AE0FFF763FB02463B69D31A7D
:1011600041F28832934201D903239BE0404B1B6A32
:1011700003F00203002BEED1FB7D012B05D13C4B8C
:10118000DB693B4A23F08053D3617B68DB69002B2A
:1011900000F08780364B5B6803F00C03082B61D0AE
:1011A0007B68DB69022B46D1334B00221A60FFF7C4
:1011B00037FB386108E0FFF733FB02463B69D31A7F
:1011C000022B01D903236DE0294B1B6803F0007348
:1011D000002BF0D17B681B6AB3F5803F08D1244B0C
:1011E0005B6823F400327B689B68214913434B60A2
:1011F0001F4B5B6823F474127B68196A7B685B6A17
:101200000B431B4913434B601B4B01221A60FFF732
:1012100007FB386108E0FFF703FB02463B69D31A7E
:10122000022B01D903233DE0114B1B6803F000732F
:10123000002BF0D035E0104B00221A60FFF7F0FAD7
:10124000386108E0FFF7ECFA02463B69D31A022B3B
:1012500001D9032326E0064B1B6803F00073002B23
:10126000F0D11EE07B68DB69012B07D1012319E077
:101270000010024000700040600042420B4B5B686F
:10128000FB60FB6803F480327B681B6A9A4206D1DC
:10129000FB6803F470127B685B6A9A4201D00123F9
:1012A00000E0002318461837BD4680BD00100240FC
:1012B00080B584B000AF786039607B68002B01D1C5
:1012C0000123D0E06A4B1B6803F007033A689A4297
:1012D00010D9674B1B6823F0070265493B6813432D
:1012E0000B60634B1B6803F007033A689A4201D016
:1012F0000123B8E07B681B6803F00203002B20D0B9
:101300007B681B6803F00403002B05D0594B5B6816
:10131000584A43F4E06353607B681B6803F008039A
:10132000002B05D0534B5B68524A43F46053536023
:10133000504B5B6823F0F0027B689B684D49134378
:101340004B607B681B6803F00103002B40D07B6877
:101350005B68012B07D1474B1B6803F40033002B5C
:1013600015D101237FE07B685B68022B07D1414BDD
:101370001B6803F00073002B09D1012373E03D4B80
:101380001B6803F00203002B01D101236BE0394BF2
:101390005B6823F003027B685B68364913434B604C
:1013A000FFF73EFAF8600AE0FFF73AFA0246FB68F8
:1013B000D31A41F28832934201D9032353E02D4BD3
:1013C0005B6803F00C027B685B689B009A42EBD180
:1013D000274B1B6803F007033A689A4210D2244B4C
:1013E0001B6823F0070222493B6813430B60204B24
:1013F0001B6803F007033A689A4201D0012332E0E8
:101400007B681B6803F00403002B08D0194B5B6852
:1014100023F4E0627B68DB68164913434B607B680A
:101420001B6803F00803002B09D0124B5B6823F400
:1014300060527B681B69DB000E4913434B6000F070
:1014400021F802460B4B5B681B0903F00F030A49A6
:10145000CB5C22FA03F3094A1360094B1B68184658
:10146000FFF7E8F8002318461037BD4680BD00BFDF
:1014700000200240001002407031000800000020EF
:101480000400002080B487B000AF0023FB6000237D
:10149000BB6000237B6100237B6000233B611E4B0C
:1014A0005B68FB60FB6803F00C03042B02D0082B85
:1014B00003D027E0194B3B6127E0FB689B0C03F04E
:1014C0000F03174AD35C7B60FB6803F48033002B67
:1014D00010D0114B5B685B0C03F00103114AD35C25
:1014E000BB607B680D4A03FB02F2BB68B2FBF3F3FF
:1014F0007B6104E07B680C4A02FB03F37B617B6940
:101500003B6102E0054B3B6100BF3B6918461C375D
:10151000BD4680BC704700BF0010024000127A0038
:10152000883100089831000800093D0080B400AF00
:10153000024B1B681846BD4680BC70470000002067
:1015400080B500AFFFF7F2FF0246054B5B681B0A50
:1015500003F007030349CB5C22FA03F3184680BD6E
:10156000001002408031000880B483B000AF786082
:1015700039607B680F221A60114B5B6803F003022D
:101580007B685A600E4B5B6803F0F0027B689A60E0
:101590000B4B5B6803F4E0627B68DA60084B5B68C6
:1015A000DB0803F4E0627B681A61064B1B6803F0FA
:1015B00007023B681A6000BF0C37BD4680BC70470D
:1015C000001002400020024080B485B000AF786077
:1015D0000A4B1B680A4AA2FB03235B0A7A6802FBD8
:1015E00003F3FB6000BFFB685A1EFA60002BF9D1C1
:1015F00000BF00BF1437BD4680BC7047000000200C
:10160000D34D621080B582B000AF78607B68002B4C
:1016100001D1012341E07B6893F83D30DBB2002B20
:1016200006D17B68002283F83C20786800F039F806
:101630007B68022283F83D207B681A687B6804334C
:101640001946104600F0AAF97B68012283F846206B
:101650007B68012283F83E207B68012283F83F20CB
:101660007B68012283F840207B68012283F84120B7
:101670007B68012283F842207B68012283F84320A3
:101680007B68012283F844207B68012283F845208F
:101690007B68012283F83D20002318460837BD46A9
:1016A00080BD80B483B000AF786000BF0C37BD460A
:1016B00080BC704780B485B000AF78607B6893F8D9
:1016C0003D30DBB2012B01D0012344E07B680222D4
:1016D00083F83D207B681B68DA687B681B6842F0F2
:1016E0000102DA607B681B681D4A934218D07B6850
:1016F0001B681C4A934213D07B681B68B3F1804F70
:101700000ED07B681B68184A934209D07B681B681F
:10171000164A934204D07B681B68154A934211D144
:101720007B681B689B6803F00703FB60FB68062B64
:1017300010D07B681B681A687B681B6842F0010246
:101740001A6007E07B681B681A687B681B6842F0B8
:1017500001021A60002318461437BD4680BC70474A
:10176000002C01400034014000040040000800400B
:10177000000C004080B584B000AF78607B681B68C7
:10178000DB68FB607B681B681B69BB60BB6803F0A0
:101790000203002B20D0FB6803F00203002B1BD0B8
:1017A0007B681B686FF002021A617B6801221A775E
:1017B0007B681B689B6903F00303002B03D07868E8
:1017C00000F0D1F805E0786800F0C4F8786800F01F
:1017D000D3F87B6800221A77BB6803F00403002B60
:1017E00020D0FB6803F00403002B1BD07B681B6830
:1017F0006FF004021A617B6802221A777B681B680B
:101800009B6903F44073002B03D0786800F0ABF8B9
:1018100005E0786800F09EF8786800F0ADF87B6825
:1018200000221A77BB6803F00803002B20D0FB6866
:1018300003F00803002B1BD07B681B686FF00802C5
:101840001A617B6804221A777B681B68DB6903F0E6
:101850000303002B03D0786800F085F805E0786872
:1018600000F078F8786800F087F87B6800221A7733
:10187000BB6803F01003002B20D0FB6803F01003BB
:10188000002B1BD07B681B686FF010021A617B680D
:1018900008221A777B681B68DB6903F44073002B0E
:1018A00003D0786800F05FF805E0786800F052F83F
:1018B000786800F061F87B6800221A77BB6803F053
:1018C0000103002B0CD0FB6803F00103002B07D0B1
:1018D0007B681B686FF001021A617868FEF75AFE98
:1018E000BB6803F08003002B0CD0FB6803F080037F
:1018F000002B07D07B681B686FF080021A61786844
:1019000000F0DBF8BB6803F04003002B0CD0FB6851
:1019100003F04003002B07D07B681B686FF0400288
:101920001A61786800F031F8BB6803F02003002BDF
:101930000CD0FB6803F02003002B07D07B681B68EA
:101940006FF020021A61786800F0AEF800BF10371F
:10195000BD4680BD80B483B000AF786000BF0C3757
:10196000BD4680BC704780B483B000AF786000BFD4
:101970000C37BD4680BC704780B483B000AF786040
:1019800000BF0C37BD4680BC704780B483B000AF49
:10199000786000BF0C37BD4680BC704780B485B00E
:1019A00000AF786039607B681B68FB607B68394AF0
:1019B000934213D07B68384A93420FD07B68B3F1CF
:1019C000804F0BD07B68354A934207D07B68344AFE
:1019D000934203D07B68334A934208D1FB6823F0DB
:1019E0007003FB603B685B68FA681343FB607B68CD
:1019F000284A934213D07B68274A93420FD07B68D2
:101A0000B3F1804F0BD07B68244A934207D07B68A8
:101A1000234A934203D07B68224A934208D1FB6851
:101A200023F44073FB603B68DB68FA681343FB6098
:101A3000FB6823F080023B685B691343FB607B68B3
:101A4000FA681A603B689A687B68DA623B681A68D1
:101A50007B689A627B680F4A934203D07B680E4A88
:101A6000934203D13B681A697B681A637B68012241
:101A70005A617B681B6903F00103002B05D07B686A
:101A80001B6923F001027B681A6100BF1437BD4651
:101A900080BC7047002C014000340140000400402D
:101AA00000080040000C004080B483B000AF7860B4
:101AB00000BF0C37BD4680BC704780B483B000AF18
:101AC000786000BF0C37BD4680BC704780B485B0DD
:101AD00000AF0346FB800023FB60B7F90630842B80
:101AE00005D0B7F90620FB6813440333FB60FB689D
:101AF00018461437BD4680BC704780B500AF00F073
:101B0000F7FA0023184680BDF0B589B004AF7860BD
:101B100039607B685B69002B20D07B689B69002B58
:101B20001CD07B685C687B681D687B681E697B686D
:101B3000B3F908301846FFF7C9FF01467B685B69B7
:101B40007A6892690292019300913B683246294675
:101B5000204600F0E8F80346FB601CE07B685C6808
:101B60007B681D687B681B699EB27B68B3F908308F
:101B70001846FFF7ABFF024607F10C0301930092F2
:101B80003B6832462946204600F02DF90346012BDA
:101B900001D0002300E0FB6818461437BD46F0BDB5
:101BA00080B584B000AF78607B68FB60FB68002B79
:101BB00001D0FB6800E00123184600F063FA00231F
:101BC00018461037BD4680BD80B483B000AF786042
:101BD0007B6803F108027B685A607B684FF0FF3234
:101BE0009A607B6803F108027B68DA607B6803F126
:101BF00008027B681A617B6800221A6000BF0C37FC
:101C0000BD4680BC704780B483B000AF78607B680D
:101C100000221A6100BF0C37BD4680BC704780B4FB
:101C200085B000AF786039607B685B68FB603B68BB
:101C3000FA685A60FB689A683B689A60FB689B6820
:101C40003A685A60FB683A689A603B687A681A6139
:101C50007B681B685A1C7B681A6000BF1437BD463E
:101C600080BC704780B485B000AF786039603B6855
:101C70001B68BB60BB68B3F1FF3F03D17B681B6986
:101C8000FB600CE07B680833FB6002E0FB685B688C
:101C9000FB60FB685B681B68BA689A42F6D2FB6817
:101CA0005A683B685A603B685B683A689A603B6870
:101CB000FA689A60FB683A685A603B687A681A6109
:101CC0007B681B685A1C7B681A6000BF1437BD46CE
:101CD00080BC704780B485B000AF78607B681B69BA
:101CE000FB607B685B687A6892689A607B689B6837
:101CF0007A6852685A60FB685B687A689A4203D1D6
:101D00007B689A68FB685A607B6800221A61FB68EE
:101D10001B685A1EFB681A60FB681B68184614375C
:101D2000BD4680BC704780B58EB004AFF860B96026
:101D30007A603B607B6B002B0BD14FF0500383F339
:101D40001188BFF36F8FBFF34F8F3B6200BF00BF9F
:101D5000FDE7BB6B002B0BD14FF0500383F31188D1
:101D6000BFF36F8FBFF34F8FFB6100BF00BFFDE775
:101D7000A0233B613B69A02B0BD04FF0500383F3B2
:101D80001188BFF36F8FBFF34F8FBB6100BF00BFE0
:101D9000FDE73B69BB6B002B1ED07B6B002B1BD080
:101DA000BB6B7B627B6A7A6B1A637B6A022283F865
:101DB0009D20002303937B6A029307F11403019390
:101DC0003B6B00933B687A68B968F86800F050F89C
:101DD000786A00F0EDF801E000237B617B6918462A
:101DE0002837BD4680BD80B58CB004AFF860B960BF
:101DF0003B601346FB80FB889B00184600F0A0FE6A
:101E000078617B69002B0ED0A02000F099FEF8616C
:101E1000FB69002B03D0FB697A691A6305E07869D6
:101E200000F05CFF01E00023FB61FB69002B17D091
:101E3000FB69002283F89D20FA8800230393FB6945
:101E40000293FB6A0193BB6A00933B68B968F86828
:101E500000F00EF8F86900F0ABF80123BB6102E076
:101E60004FF0FF33BB61BB6918462037BD4680BDCC
:101E700080B588B000AFF860B9607A603B603B6BBA
:101E80001A6B7B6803F18043013B9B001344BB61E9
:101E9000BB6923F00703BB61BB6903F00703002B99
:101EA0000BD04FF0500383F31188BFF36F8FBFF354
:101EB0004F8F7B6100BF00BFFDE7BB68002B1FD0C9
:101EC0000023FB6112E0BA68FB69134419783A6B8E
:101ED000FB69134434330A461A70BA68FB69134429
:101EE0001B78002B06D0FB690133FB61FB690F2BCC
:101EF000E9D900E000BF3B6B002283F8432003E0F8
:101F00003B6B002283F83420BB6A062B01D90623E1
:101F1000BB623B6BBA6ADA623B6BBA6A5A643B6B70
:101F200000229A643B6B04331846FFF76CFE3B6B50
:101F300018331846FFF767FE3B6B3A6B1A61BB6AB2
:101F4000C3F107023B6B9A613B6B3A6B5A623B6B86
:101F50000022C3F898203B6B002283F89C203B6B47
:101F60004C334C220021184600F0D6FF3B6B0D4A43
:101F70001A653B6B0C4A5A653B6B0C4A9A653A688A
:101F8000F968B86900F028FC02463B6B1A60FB6AEE
:101F9000002B02D0FB6A3A6B1A6000BF2037BD46A7
:101FA00080BD00BFD010002038110020A0110020FB
:101FB00080B582B000AF786000F000FD2A4B1B684E
:101FC0000133294A1360294B1B68002B09D1274A8A
:101FD0007B681360244B1B68012B10D100F0D2FAF0
:101FE0000DE0234B1B68002B09D1204B1B68DA6ADC
:101FF0007B68DB6A9A4202D81C4A7B6813601D4BDF
:102000001B6801331B4A13607B68DB6A01229A401C
:10201000194B1B681343184A13607B68DA6A13462E
:102020009B0013449B00154A1A447B6804331946ED
:102030001046FFF7F4FD00F0F1FC0D4B1B68002B80
:102040000ED00A4B1B68DA6A7B68DB6A9A4207D2B9
:102050000B4B4FF080521A60BFF34F8FBFF36F8F5F
:1020600000BF0837BD4680BD7C0400207C030020F3
:1020700088040020980400208404002080030020AD
:1020800004ED00E080B584B000AF78600023FB6011
:102090007B68002B18D0144B1B68002B0BD04FF023
:1020A000500383F31188BFF36F8FBFF34F8FBB6073
:1020B00000BF00BFFDE700F085F80021786800F060
:1020C00025FB00F08DF8F860FB68002B07D1074B6B
:1020D0004FF080521A60BFF34F8FBFF36F8F00BF76
:1020E0001037BD4680BD00BFA404002004ED00E011
:1020F00080B58AB004AF0023BB6000237B603A4602
:10210000391D07F108031846FEF716F939687B6890
:10211000BA68029201930023009300230A462149E2
:102120002148FFF700FE0346204A13601F4B1B683F
:10213000002B02D001237B6101E000237B617B69DE
:10214000012B1BD14FF0500383F31188BFF36F8F26
:10215000BFF34F8F3B6100BF154B1B684C33154AD3
:102160001360154B4FF0FF321A60144B01221A60B6
:10217000134B00221A6000F0AFFB0FE07B69B3F154
:10218000FF3F0BD14FF0500383F31188BFF36F8FE4
:10219000BFF34F8FFB6000BF00BFFDE700BF1837E4
:1021A000BD4680BD6831000855250008A004002008
:1021B0007C030020100000209C04002088040020E4
:1021C0008004002080B400AF044B1B680133034A35
:1021D000136000BFBD4680BC704700BFA404002050
:1021E00080B584B000AF0023FB600023BB60424B8E
:1021F0001B68002B0BD14FF0500383F31188BFF302
:102200006F8FBFF34F8F3B6000BF00BFFDE700F053
:10221000D5FB394B1B68013B374A1360364B1B68B3
:10222000002B61D1354B1B68002B5DD02EE0344B69
:10223000DB68DB68FB60FB6818331846FFF74AFD74
:10224000FB6804331846FFF745FDFB68DB6A012293
:102250009A402C4B1B6813432A4A1360FB68DA6AC6
:1022600013469B0013449B00274A1A44FB6804331F
:1022700019461046FFF7D3FCFB68DA6A234B1B684C
:10228000DB6A9A4202D3224B01221A601C4B1B6864
:10229000002BCCD1FB68002B01D000F017FA1D4BAE
:1022A0001B687B607B68002B10D000F037F803467A
:1022B000002B02D0164B01221A607B68013B7B6029
:1022C0007B68002BF1D1134B00221A60104B1B6866
:1022D000002B09D00123BB600F4B4FF080521A60D6
:1022E000BFF34F8FBFF36F8F00F098FBBB681846AA
:1022F0001037BD4680BD00BFA40400207C04002030
:102300003C04002084040020800300207C03002083
:10231000900400208C04002004ED00E080B586B01D
:1023200000AF00237B614F4B1B68002B40F08F8078
:102330004D4B1B6801333B614B4A3B6913603B6962
:10234000002B21D1494B1B681B68002B0BD04FF091
:10235000500383F31188BFF36F8FBFF34F8F3B6040
:1023600000BF00BFFDE7414B1B68FB60404B1B6893
:102370003E4A13603E4AFB6813603E4B1B680133C4
:102380003C4A136000F0A2F93B4B1B683A699A4241
:1023900048D3364B1B681B68002B04D1364B4FF0DB
:1023A000FF321A603EE0314B1B68DB68DB68BB60C4
:1023B000BB685B687B603A697B689A4203D22E4AAD
:1023C0007B6813602EE0BB6804331846FFF782FC7D
:1023D000BB689B6A002B04D0BB6818331846FFF714
:1023E00079FCBB68DB6A01229A40244B1B681343CB
:1023F000224A1360BB68DA6A13469B0013449B00B1
:102400001F4A1A44BB68043319461046FFF707FCFD
:10241000BB68DA6A1B4B1B68DB6A9A42B9D301239B
:102420007B61B6E7174B1B68DA6A154913469B00B8
:1024300013449B000B441B68012B01D901237B61D2
:10244000114B1B68002B07D001237B6104E00F4B6D
:102450001B6801330D4A13607B6918461837BD4667
:1024600080BD00BFA40400208004002034040020AC
:1024700038040020940400209C04002084040020E0
:10248000800300207C030020900400208C040020A6
:1024900080B487B000AF294B1B68002B03D0284BBA
:1024A00001221A6045E0264B00221A60254B1B686A
:1024B000FB60FB68B3FA83F3FB72FB7AC3F11F0383
:1024C0007B6121497A6913469B0013449B000B44AE
:1024D0001B68002B0BD14FF0500383F31188BFF31F
:1024E0006F8FBFF34F8F7B6000BF00BFFDE77A693E
:1024F00013469B0013449B00134A13443B613B6902
:102500005B685A683B695A603B695A683B690833A3
:102510009A4204D13B695B685A683B695A603B69DF
:102520005B68DB68094A1360084B1B684C33084A38
:10253000136000BF1C37BD4680BC7047A404002058
:102540009004002084040020800300207C030020ED
:102550001000002080B582B000AF786000F052F823
:10256000064B1B68012BF9D9054B4FF080521A60BE
:10257000BFF34F8FBFF36F8FF0E700BF80030020E2
:1025800004ED00E080B582B000AF00237B600CE07A
:102590007A6813469B0013449B00124A1344184662
:1025A000FFF712FB7B6801337B607B68062BEFD95A
:1025B0000D48FFF709FB0D48FFF706FB0C48FFF736
:1025C00003FB0C48FFF700FB0B48FFF7FDFA0B4B32
:1025D000054A1A600A4B054A1A6000BF0837BD4613
:1025E00080BD00BF800300200C04002020040020D8
:1025F0003C04002050040020680400203404002023
:102600003804002080B582B000AF19E000F0D6F9A0
:10261000104BDB68DB687B607B6804331846FFF790
:1026200059FB0D4B1B68013B0B4A13600B4B1B689E
:10263000013B0A4A136000F0F1F9786800F010F8E5
:10264000064B1B68002BE1D100BF00BF0837BD4619
:1026500080BD00BF500400207C04002064040020E2
:1026600080B584B000AF78607B684C33184600F0CA
:102670005BFC7B6893F89D30002B08D17B681B6B5B
:10268000184600F02BFB786800F028FB19E07B6807
:1026900093F89D30012B03D1786800F01FFB10E008
:1026A0007B6893F89D30022B0BD04FF0500383F3DF
:1026B0001188BFF36F8FBFF34F8FFB6000BF00BF68
:1026C000FDE700BF1037BD4680BD000080B483B079
:1026D00000AF0C4B1B681B68002B04D10A4B4FF05A
:1026E000FF321A6008E0074B1B68DB68DB687B6021
:1026F0007B685B68044A136000BF0C37BD4680BC32
:10270000704700BF340400209C04002080B584B0D2
:1027100000AF78603960294B1B68FB60284B1B6851
:1027200004331846FFF7D6FA0346002B0BD1244B8F
:102730001B68DB6A012202FA03F3DA43214B1B68B0
:102740001340204A13607B68B3F1FF3F0AD13B6816
:10275000002B07D01A4B1B68043319461A48FFF7A1
:102760005EFA26E0FA687B681344BB60144B1B6872
:10277000BA685A60BA68FB689A4209D2134B1A6861
:102780000F4B1B68043319461046FFF76BFA10E035
:102790000F4B1A680A4B1B68043319461046FFF7A3
:1027A00061FA0C4B1B68BA689A4202D2094ABB68AC
:1027B000136000BF1037BD4680BD00BF80040020FD
:1027C0007C030020840400206804002038040020DA
:1027D000340400209C04002080B485B000AFF86071
:1027E000B9607A60FB68043BFB60FB684FF0807265
:1027F0001A60FB68043BFB60BB6823F00102FB68C6
:102800001A60FB68043BFB60084AFB681A60FB68BF
:10281000143BFB607A68FB681A60FB68203BFB6036
:10282000FB6818461437BD4680BC70473128000845
:1028300080B485B000AF00237B60124B1B68B3F1FE
:10284000FF3F0BD04FF0500383F31188BFF36F8F1E
:10285000BFF34F8FFB6000BF00BFFDE74FF0500399
:1028600083F31188BFF36F8FBFF34F8FBB6000BF3F
:1028700000BF7B68002BFCD000BF00BF1437BD46F3
:1028800080BC70470C000020000000000000000029
:10289000074B19680868B0E8F00F80F30988BFF3A8
:1028A0006F8F4FF0000080F311884EF00D0E7047CF
:1028B0007C03002000BF00BF06480068006880F36A
:1028C000088862B661B6BFF34F8FBFF36F8F00DF2A
:1028D00000BF00BF08ED00E080B584B000AF324B10
:1028E000FB60FB681B78DBB27B60FB68FF221A7021
:1028F000FB681B78DBB2FB70FB78DBB203F05003A4
:10290000DAB22A4B1A702A4B07221A6009E0284BC8
:102910001B68013B264A1360FB78DBB25B00DBB22D
:10292000FB70FB78DBB203F08003802BEFD0204BF1
:102930001B68C3F10703042B0BD04FF0500383F344
:102940001188BFF36F8FBFF34F8FBB6000BF00BF15
:10295000FDE7174B1B681B02154A1360144B1B68DD
:1029600003F4E063124A13607B68DAB2FB681A7002
:10297000104B1B680F4A43F4700313600D4B1B6828
:102980000C4A43F07043136000F0B8F80A4B002281
:102990001A60FFF791FFFFF77BFDFFF749FF002368
:1029A00018461037BD4680BD00E400E0A8040020B2
:1029B000AC04002020ED00E00C00002080B483B0C7
:1029C00000AF4FF0500383F31188BFF36F8FBFF355
:1029D0004F8F7B6000BF0F4B1B6801330D4A1360A4
:1029E0000C4B1B68012B10D10B4B1B68DBB2002B6F
:1029F0000BD04FF0500383F31188BFF36F8FBFF3F9
:102A00004F8F3B6000BF00BFFDE700BF0C37BD46E6
:102A100080BC70470C00002004ED00E080B483B05F
:102A200000AF124B1B68002B0BD14FF0500383F308
:102A30001188BFF36F8FBFF34F8F7B6000BF00BF64
:102A4000FDE70A4B1B68013B084A1360074B1B68F4
:102A5000002B05D100233B603B6883F3118800BF46
:102A600000BF0C37BD4680BC704700BF0C00002083
:102A7000EFF30980BFF36F8F0D4B1A6820E9F00F59
:102A800010602DE908404FF0500080F31188FFF7E7
:102A9000FFFC4FF0000080F31188BDE80840196882
:102AA0000868B0E8F00F80F30988BFF36F8F7047B4
:102AB0007C03002000BF00BF80B582B000AF4FF0A4
:102AC000500383F31188BFF36F8FBFF34F8F7B6089
:102AD00000BFFFF723FC0346002B03D0064B4FF04B
:102AE00080521A6000233B603B6883F3118800BF6B
:102AF00000BF0837BD4680BD04ED00E080B400AFE4
:102B00000A4B00221A600A4B00221A60094B1B680C
:102B1000094AA2FB03239B09084A013B1360034BAC
:102B200007221A6000BFBD4680BC704710E000E07D
:102B300018E000E000000020D34D621014E000E037
:102B400080B58AB000AF78600023FB61FFF73AFBE5
:102B50005C4B1B68002B01D100F024F95A4B1A681A
:102B60007B681340002B40F095807B68002B1ED0C3
:102B700008227B6813447B607B6803F00703002B0B
:102B800015D07B6823F0070308337B607B6803F074
:102B90000703002B0BD04FF0500383F31188BFF3D2
:102BA0006F8FBFF34F8F7B6100BF00BFFDE77B6876
:102BB000002B6FD0454B1B687A689A426AD8444B09
:102BC0003B62434B1B687B6204E07B6A3B627B6A2F
:102BD0001B687B627B6A5B687A689A4203D97B6A6E
:102BE0001B68002BF1D1374B1B687A6A9A4251D08F
:102BF0003B6A1B6808221344FB617B6A1A683B6AC4
:102C00001A607B6A5A687B68D21A08235B009A4272
:102C100020D97A6A7B681344BB61BB6903F0070360
:102C2000002B0BD04FF0500383F31188BFF36F8F4D
:102C3000BFF34F8F3B6100BF00BFFDE77B6A5A685F
:102C40007B68D21ABB695A607B6A7A685A60B86935
:102C500000F00AF91D4B1A687B6A5B68D31A1B4A9D
:102C600013601A4B1A681B4B1B689A4203D2174B0E
:102C70001B68184A13607B6A5A68134B1B681A4317
:102C80007B6A5A607B6A00221A60134B1B6801330F
:102C9000114A1360FFF7A4FAFB6903F00703002B46
:102CA0000BD04FF0500383F31188BFF36F8FBFF346
:102CB0004F8FFB6000BF00BFFDE7FB691846283758
:102CC000BD4680BDB8100020CC100020BC100020F4
:102CD000B0100020C0100020C410002080B586B0C5
:102CE00000AF78607B687B617B68002B4FD0082346
:102CF0005B427A6913447B617B693B613B695A683B
:102D0000254B1B681340002B0BD14FF0500383F36E
:102D10001188BFF36F8FBFF34F8FFB6000BF00BF01
:102D2000FDE73B691B68002B0BD04FF0500383F38A
:102D30001188BFF36F8FBFF34F8FBB6000BF00BF21
:102D4000FDE73B695A68144B1B681340002B1ED0EB
:102D50003B691B68002B1AD13B695A680E4B1B68F4
:102D6000DB431A403B695A60FFF72CFA3B695A680B
:102D70000A4B1B681344094A1360386900F074F861
:102D8000074B1B680133064A1360FFF729FA00BF9F
:102D90001837BD4680BD00BFCC100020BC100020FD
:102DA000C810002080B485B000AF4FF44063BB6012
:102DB000274BFB60FB6803F00703002B0CD0FB687C
:102DC0000733FB60FB6823F00703FB60BA68FB680E
:102DD000D31A1F4A1344BB60FB687B601D4A7B68A3
:102DE00013601C4B00225A607B68BA681344FB6076
:102DF0000822FB689B1AFB60FB6823F00703FB605B
:102E0000FB68154A1360144B1B6800225A60124B72
:102E10001B6800221A607B683B603B68FA68D21A24
:102E20003B685A600C4B1A683B681A603B685B68E9
:102E30000A4A13603B685B68094A1360094B4FF00C
:102E400000421A6000BF1437BD4680BC704700BF07
:102E5000B0040020B0100020B8100020C0100020E6
:102E6000BC100020CC10002080B485B000AF78608A
:102E7000274BFB6002E0FB681B68FB60FB681B687C
:102E80007A689A42F7D8FB68BB60FB685B68BA68EF
:102E900013447A689A4208D1FB685A687B685B6879
:102EA0001A44FB685A60FB687B607B68BB607B6888
:102EB0005B68BA681A44FB681B689A4218D1FB68C1
:102EC0001A68144B1B689A420DD07B685A68FB68DD
:102ED0001B685B681A447B685A60FB681B681A6849
:102EE0007B681A6008E00B4B1A687B681A6003E085
:102EF000FB681A687B681A60FA687B689A4202D09D
:102F0000FB687A681A6000BF1437BD4680BC704702
:102F1000B0100020B810002003460244934200D1B4
:102F2000704703F8011BF9E72D4B70B51B68044689
:102F3000834253D0C3691BB3DB6863B10025E369E7
:102F4000DB685959B1B90435802DF8D1E3692046C1
:102F5000D96800F06DF8E369196811B1204600F0F6
:102F600067F8E3699D685DB1294620462D6800F049
:102F70005FF8F8E70E68204600F05AF83146E1E7BE
:102F8000616911B1204600F053F8E16911B12046A2
:102F900000F04EF8216B11B1204600F049F8616B4A
:102FA00011B1204600F044F8A16B11B1204600F0A9
:102FB0003FF8A16C11B1204600F03AF8616C11B1F4
:102FC000204600F035F8E16A11B1204600F030F8F3
:102FD000236A1BB12046BDE87040184770BD00BF92
:102FE0001000002070B500260C4D0D4C641BA41081
:102FF000A64209D100F070F800260A4D0A4C641B65
:10300000A410A64205D170BD55F8043B984701367F
:10301000EEE755F8043B98470136F2E79C3100088B
:103020009C3100089C310008A031000870477047AF
:1030300038B50546002940D051F8043C0C1F002B40
:10304000B8BFE41800F03CF81C4A136833B9636059
:1030500014602846BDE8384000F038B8A34208D9CB
:10306000206821188B4201BF19685B68091821602C
:10307000EDE71A465B680BB1A342FAD91168501804
:10308000A0420BD120680144501883421160E0D166
:1030900018685B68084410605360DAE702D90C23B3
:1030A0002B60D6E7206821188B4201BF19685B6846
:1030B0000918216063605460CBE738BD0C12002012
:1030C0000148FFF7B3BF00BF081200200148FFF717
:1030D000AEBF00BF08120020F8B500BFF8BC08BCA6
:1030E0009E467047F8B500BFF8BC08BC9E467047C6
:1030F00064656661756C745461736B00F030000830
:10310000FD03000800000000000000008000000037
:1031100000000000000000006D795461736B5F4295
:10312000454550001831000811040008FDFF00005B
:10313000000000008000000000000000000000000F
:103140006D795461736B5F4B455900004031000845
:1031500025040008FDFF00000000000080000000C2
:10316000000000000000000049444C450000000041
:103170000000000000000000010203040607080927
:103180000000000001020304020304050607080909
:0C3190000A0B0C0D0E0F101001020000C5
:04319C001502000810
:0431A000F101000831
:1031A4000024F4001000000001000000AAAAAAAA4A
:1031B4001400002000000000D0100020381100206E
:1031C400A01100200000000000000000000000002A
:1031D40000000000000000000000000000000000EB
:1031E40000000000000000000000000000000000DB
:1031F40000000000000000000000000000000000CB
:040000050800078563
:00000001FF
